{
  "_format": "hh-sol-artifact-1",
  "contractName": "W3s",
  "sourceName": "contracts/W3s.sol",
  "abi": [
    {
      "inputs": [],
      "stateMutability": "nonpayable",
      "type": "constructor"
    },
    {
      "anonymous": false,
      "inputs": [
        {
          "indexed": true,
          "internalType": "address",
          "name": "owner",
          "type": "address"
        },
        {
          "indexed": true,
          "internalType": "address",
          "name": "approved",
          "type": "address"
        },
        {
          "indexed": true,
          "internalType": "uint256",
          "name": "tokenId",
          "type": "uint256"
        }
      ],
      "name": "Approval",
      "type": "event"
    },
    {
      "anonymous": false,
      "inputs": [
        {
          "indexed": true,
          "internalType": "address",
          "name": "owner",
          "type": "address"
        },
        {
          "indexed": true,
          "internalType": "address",
          "name": "operator",
          "type": "address"
        },
        {
          "indexed": false,
          "internalType": "bool",
          "name": "approved",
          "type": "bool"
        }
      ],
      "name": "ApprovalForAll",
      "type": "event"
    },
    {
      "anonymous": false,
      "inputs": [
        {
          "indexed": true,
          "internalType": "address",
          "name": "previousOwner",
          "type": "address"
        },
        {
          "indexed": true,
          "internalType": "address",
          "name": "newOwner",
          "type": "address"
        }
      ],
      "name": "OwnershipTransferred",
      "type": "event"
    },
    {
      "anonymous": false,
      "inputs": [
        {
          "indexed": false,
          "internalType": "address",
          "name": "account",
          "type": "address"
        }
      ],
      "name": "Paused",
      "type": "event"
    },
    {
      "anonymous": false,
      "inputs": [
        {
          "indexed": true,
          "internalType": "address",
          "name": "from",
          "type": "address"
        },
        {
          "indexed": true,
          "internalType": "address",
          "name": "to",
          "type": "address"
        },
        {
          "indexed": true,
          "internalType": "uint256",
          "name": "tokenId",
          "type": "uint256"
        }
      ],
      "name": "Transfer",
      "type": "event"
    },
    {
      "anonymous": false,
      "inputs": [
        {
          "indexed": false,
          "internalType": "address",
          "name": "account",
          "type": "address"
        }
      ],
      "name": "Unpaused",
      "type": "event"
    },
    {
      "inputs": [],
      "name": "_publicMintPrice",
      "outputs": [
        {
          "internalType": "uint256",
          "name": "",
          "type": "uint256"
        }
      ],
      "stateMutability": "view",
      "type": "function"
    },
    {
      "inputs": [
        {
          "internalType": "address",
          "name": "to",
          "type": "address"
        },
        {
          "internalType": "uint256",
          "name": "tokenId",
          "type": "uint256"
        }
      ],
      "name": "approve",
      "outputs": [],
      "stateMutability": "nonpayable",
      "type": "function"
    },
    {
      "inputs": [
        {
          "internalType": "address",
          "name": "owner",
          "type": "address"
        }
      ],
      "name": "balanceOf",
      "outputs": [
        {
          "internalType": "uint256",
          "name": "",
          "type": "uint256"
        }
      ],
      "stateMutability": "view",
      "type": "function"
    },
    {
      "inputs": [
        {
          "internalType": "uint256",
          "name": "tokenId",
          "type": "uint256"
        }
      ],
      "name": "getApproved",
      "outputs": [
        {
          "internalType": "address",
          "name": "",
          "type": "address"
        }
      ],
      "stateMutability": "view",
      "type": "function"
    },
    {
      "inputs": [],
      "name": "getTokenURI",
      "outputs": [
        {
          "internalType": "uint256",
          "name": "",
          "type": "uint256"
        }
      ],
      "stateMutability": "view",
      "type": "function"
    },
    {
      "inputs": [
        {
          "internalType": "address",
          "name": "owner",
          "type": "address"
        },
        {
          "internalType": "address",
          "name": "operator",
          "type": "address"
        }
      ],
      "name": "isApprovedForAll",
      "outputs": [
        {
          "internalType": "bool",
          "name": "",
          "type": "bool"
        }
      ],
      "stateMutability": "view",
      "type": "function"
    },
    {
      "inputs": [],
      "name": "name",
      "outputs": [
        {
          "internalType": "string",
          "name": "",
          "type": "string"
        }
      ],
      "stateMutability": "view",
      "type": "function"
    },
    {
      "inputs": [],
      "name": "owner",
      "outputs": [
        {
          "internalType": "address",
          "name": "",
          "type": "address"
        }
      ],
      "stateMutability": "view",
      "type": "function"
    },
    {
      "inputs": [
        {
          "internalType": "uint256",
          "name": "tokenId",
          "type": "uint256"
        }
      ],
      "name": "ownerOf",
      "outputs": [
        {
          "internalType": "address",
          "name": "",
          "type": "address"
        }
      ],
      "stateMutability": "view",
      "type": "function"
    },
    {
      "inputs": [],
      "name": "pause",
      "outputs": [],
      "stateMutability": "nonpayable",
      "type": "function"
    },
    {
      "inputs": [],
      "name": "paused",
      "outputs": [
        {
          "internalType": "bool",
          "name": "",
          "type": "bool"
        }
      ],
      "stateMutability": "view",
      "type": "function"
    },
    {
      "inputs": [
        {
          "internalType": "string",
          "name": "cid",
          "type": "string"
        },
        {
          "internalType": "string",
          "name": "config",
          "type": "string"
        }
      ],
      "name": "publicMint",
      "outputs": [],
      "stateMutability": "payable",
      "type": "function"
    },
    {
      "inputs": [],
      "name": "renounceOwnership",
      "outputs": [],
      "stateMutability": "nonpayable",
      "type": "function"
    },
    {
      "inputs": [
        {
          "internalType": "address",
          "name": "from",
          "type": "address"
        },
        {
          "internalType": "address",
          "name": "to",
          "type": "address"
        },
        {
          "internalType": "uint256",
          "name": "tokenId",
          "type": "uint256"
        }
      ],
      "name": "safeTransferFrom",
      "outputs": [],
      "stateMutability": "nonpayable",
      "type": "function"
    },
    {
      "inputs": [
        {
          "internalType": "address",
          "name": "from",
          "type": "address"
        },
        {
          "internalType": "address",
          "name": "to",
          "type": "address"
        },
        {
          "internalType": "uint256",
          "name": "tokenId",
          "type": "uint256"
        },
        {
          "internalType": "bytes",
          "name": "data",
          "type": "bytes"
        }
      ],
      "name": "safeTransferFrom",
      "outputs": [],
      "stateMutability": "nonpayable",
      "type": "function"
    },
    {
      "inputs": [
        {
          "internalType": "address",
          "name": "operator",
          "type": "address"
        },
        {
          "internalType": "bool",
          "name": "approved",
          "type": "bool"
        }
      ],
      "name": "setApprovalForAll",
      "outputs": [],
      "stateMutability": "nonpayable",
      "type": "function"
    },
    {
      "inputs": [
        {
          "internalType": "bytes4",
          "name": "interfaceId",
          "type": "bytes4"
        }
      ],
      "name": "supportsInterface",
      "outputs": [
        {
          "internalType": "bool",
          "name": "",
          "type": "bool"
        }
      ],
      "stateMutability": "view",
      "type": "function"
    },
    {
      "inputs": [],
      "name": "symbol",
      "outputs": [
        {
          "internalType": "string",
          "name": "",
          "type": "string"
        }
      ],
      "stateMutability": "view",
      "type": "function"
    },
    {
      "inputs": [
        {
          "internalType": "uint256",
          "name": "tokenId",
          "type": "uint256"
        }
      ],
      "name": "tokenURI",
      "outputs": [
        {
          "internalType": "string",
          "name": "",
          "type": "string"
        }
      ],
      "stateMutability": "view",
      "type": "function"
    },
    {
      "inputs": [
        {
          "internalType": "address",
          "name": "from",
          "type": "address"
        },
        {
          "internalType": "address",
          "name": "to",
          "type": "address"
        },
        {
          "internalType": "uint256",
          "name": "tokenId",
          "type": "uint256"
        }
      ],
      "name": "transferFrom",
      "outputs": [],
      "stateMutability": "nonpayable",
      "type": "function"
    },
    {
      "inputs": [
        {
          "internalType": "address",
          "name": "newOwner",
          "type": "address"
        }
      ],
      "name": "transferOwnership",
      "outputs": [],
      "stateMutability": "nonpayable",
      "type": "function"
    },
    {
      "inputs": [],
      "name": "unpause",
      "outputs": [],
      "stateMutability": "nonpayable",
      "type": "function"
    }
  ],
  "bytecode": "0x60806040523480156200001157600080fd5b506040518060400160405280600381526020017f77337300000000000000000000000000000000000000000000000000000000008152506040518060400160405280600381526020017f7733730000000000000000000000000000000000000000000000000000000000815250816000908051906020019062000096929190620001cf565b508060019080519060200190620000af929190620001cf565b5050506000600760006101000a81548160ff021916908315150217905550620000ed620000e16200010160201b60201c565b6200010960201b60201c565b662386f26fc10000600881905550620002e4565b600033905090565b6000600760019054906101000a900473ffffffffffffffffffffffffffffffffffffffff16905081600760016101000a81548173ffffffffffffffffffffffffffffffffffffffff021916908373ffffffffffffffffffffffffffffffffffffffff1602179055508173ffffffffffffffffffffffffffffffffffffffff168173ffffffffffffffffffffffffffffffffffffffff167f8be0079c531659141344cd1fd0a4f28419497f9722a3daafe3b4186f6b6457e060405160405180910390a35050565b828054620001dd90620002ae565b90600052602060002090601f0160209004810192826200020157600085556200024d565b82601f106200021c57805160ff19168380011785556200024d565b828001600101855582156200024d579182015b828111156200024c5782518255916020019190600101906200022f565b5b5090506200025c919062000260565b5090565b5b808211156200027b57600081600090555060010162000261565b5090565b7f4e487b7100000000000000000000000000000000000000000000000000000000600052602260045260246000fd5b60006002820490506001821680620002c757607f821691505b60208210811415620002de57620002dd6200027f565b5b50919050565b61390480620002f46000396000f3fe6080604052600436106101355760003560e01c8063715018a6116100ab578063b551e3661161006f578063b551e366146103df578063b88d4fde1461040a578063c87b56dd14610433578063d4a1911614610470578063e985e9c51461049b578063f2fde38b146104d857610135565b8063715018a6146103325780638456cb59146103495780638da5cb5b1461036057806395d89b411461038b578063a22cb465146103b657610135565b806332e62c94116100fd57806332e62c94146102315780633f4ba83a1461024d57806342842e0e146102645780635c975abb1461028d5780636352211e146102b857806370a08231146102f557610135565b806301ffc9a71461013a57806306fdde0314610177578063081812fc146101a2578063095ea7b3146101df57806323b872dd14610208575b600080fd5b34801561014657600080fd5b50610161600480360381019061015c919061221c565b610501565b60405161016e9190612264565b60405180910390f35b34801561018357600080fd5b5061018c6105e3565b6040516101999190612318565b60405180910390f35b3480156101ae57600080fd5b506101c960048036038101906101c49190612370565b610675565b6040516101d691906123de565b60405180910390f35b3480156101eb57600080fd5b5061020660048036038101906102019190612425565b6106bb565b005b34801561021457600080fd5b5061022f600480360381019061022a9190612465565b6107d3565b005b61024b600480360381019061024691906125ed565b610833565b005b34801561025957600080fd5b506102626108fd565b005b34801561027057600080fd5b5061028b60048036038101906102869190612465565b61090f565b005b34801561029957600080fd5b506102a261092f565b6040516102af9190612264565b60405180910390f35b3480156102c457600080fd5b506102df60048036038101906102da9190612370565b610946565b6040516102ec91906123de565b60405180910390f35b34801561030157600080fd5b5061031c60048036038101906103179190612665565b6109f8565b60405161032991906126a1565b60405180910390f35b34801561033e57600080fd5b50610347610ab0565b005b34801561035557600080fd5b5061035e610ac4565b005b34801561036c57600080fd5b50610375610ad6565b60405161038291906123de565b60405180910390f35b34801561039757600080fd5b506103a0610b00565b6040516103ad9190612318565b60405180910390f35b3480156103c257600080fd5b506103dd60048036038101906103d891906126e8565b610b92565b005b3480156103eb57600080fd5b506103f4610ba8565b60405161040191906126a1565b60405180910390f35b34801561041657600080fd5b50610431600480360381019061042c91906127c9565b610bae565b005b34801561043f57600080fd5b5061045a60048036038101906104559190612370565b610c10565b6040516104679190612318565b60405180910390f35b34801561047c57600080fd5b50610485610c6e565b60405161049291906126a1565b60405180910390f35b3480156104a757600080fd5b506104c260048036038101906104bd919061284c565b610d37565b6040516104cf9190612264565b60405180910390f35b3480156104e457600080fd5b506104ff60048036038101906104fa9190612665565b610dcb565b005b60007f80ac58cd000000000000000000000000000000000000000000000000000000007bffffffffffffffffffffffffffffffffffffffffffffffffffffffff1916827bffffffffffffffffffffffffffffffffffffffffffffffffffffffff191614806105cc57507f5b5e139f000000000000000000000000000000000000000000000000000000007bffffffffffffffffffffffffffffffffffffffffffffffffffffffff1916827bffffffffffffffffffffffffffffffffffffffffffffffffffffffff1916145b806105dc57506105db82610e4f565b5b9050919050565b6060600080546105f2906128bb565b80601f016020809104026020016040519081016040528092919081815260200182805461061e906128bb565b801561066b5780601f106106405761010080835404028352916020019161066b565b820191906000526020600020905b81548152906001019060200180831161064e57829003601f168201915b5050505050905090565b600061068082610eb9565b6004600083815260200190815260200160002060009054906101000a900473ffffffffffffffffffffffffffffffffffffffff169050919050565b60006106c682610946565b90508073ffffffffffffffffffffffffffffffffffffffff168373ffffffffffffffffffffffffffffffffffffffff161415610737576040517f08c379a000000000000000000000000000000000000000000000000000000000815260040161072e9061295f565b60405180910390fd5b8073ffffffffffffffffffffffffffffffffffffffff16610756610f04565b73ffffffffffffffffffffffffffffffffffffffff16148061078557506107848161077f610f04565b610d37565b5b6107c4576040517f08c379a00000000000000000000000000000000000000000000000000000000081526004016107bb906129f1565b60405180910390fd5b6107ce8383610f0c565b505050565b6107e46107de610f04565b82610fc5565b610823576040517f08c379a000000000000000000000000000000000000000000000000000000000815260040161081a90612a83565b60405180910390fd5b61082e83838361105a565b505050565b600854341015610878576040517f08c379a000000000000000000000000000000000000000000000000000000000815260040161086f90612aef565b60405180910390fd5b6000610884600a6112c1565b9050610890600a6112cf565b61089a33826112e5565b60006108a7848484611303565b90506108b3828261135f565b81600960003373ffffffffffffffffffffffffffffffffffffffff1673ffffffffffffffffffffffffffffffffffffffff1681526020019081526020016000208190555050505050565b6109056113d3565b61090d611451565b565b61092a83838360405180602001604052806000815250610bae565b505050565b6000600760009054906101000a900460ff16905090565b6000806002600084815260200190815260200160002060009054906101000a900473ffffffffffffffffffffffffffffffffffffffff169050600073ffffffffffffffffffffffffffffffffffffffff168173ffffffffffffffffffffffffffffffffffffffff1614156109ef576040517f08c379a00000000000000000000000000000000000000000000000000000000081526004016109e690612b5b565b60405180910390fd5b80915050919050565b60008073ffffffffffffffffffffffffffffffffffffffff168273ffffffffffffffffffffffffffffffffffffffff161415610a69576040517f08c379a0000000000000000000000000000000000000000000000000000000008152600401610a6090612bed565b60405180910390fd5b600360008373ffffffffffffffffffffffffffffffffffffffff1673ffffffffffffffffffffffffffffffffffffffff168152602001908152602001600020549050919050565b610ab86113d3565b610ac260006114b4565b565b610acc6113d3565b610ad461157a565b565b6000600760019054906101000a900473ffffffffffffffffffffffffffffffffffffffff16905090565b606060018054610b0f906128bb565b80601f0160208091040260200160405190810160405280929190818152602001828054610b3b906128bb565b8015610b885780601f10610b5d57610100808354040283529160200191610b88565b820191906000526020600020905b815481529060010190602001808311610b6b57829003601f168201915b5050505050905090565b610ba4610b9d610f04565b83836115dd565b5050565b60085481565b610bbf610bb9610f04565b83610fc5565b610bfe576040517f08c379a0000000000000000000000000000000000000000000000000000000008152600401610bf590612a83565b60405180910390fd5b610c0a8484848461174a565b50505050565b60606000610c44610c20846117a6565b604051602001610c309190612c49565b6040516020818303038152906040526118b9565b905080604051602001610c579190612cac565b604051602081830303815290604052915050919050565b600080600960003373ffffffffffffffffffffffffffffffffffffffff1673ffffffffffffffffffffffffffffffffffffffff168152602001908152602001600020541015610cf2576040517f08c379a0000000000000000000000000000000000000000000000000000000008152600401610ce990612d1a565b60405180910390fd5b600960003373ffffffffffffffffffffffffffffffffffffffff1673ffffffffffffffffffffffffffffffffffffffff16815260200190815260200160002054905090565b6000600560008473ffffffffffffffffffffffffffffffffffffffff1673ffffffffffffffffffffffffffffffffffffffff16815260200190815260200160002060008373ffffffffffffffffffffffffffffffffffffffff1673ffffffffffffffffffffffffffffffffffffffff16815260200190815260200160002060009054906101000a900460ff16905092915050565b610dd36113d3565b600073ffffffffffffffffffffffffffffffffffffffff168173ffffffffffffffffffffffffffffffffffffffff161415610e43576040517f08c379a0000000000000000000000000000000000000000000000000000000008152600401610e3a90612dac565b60405180910390fd5b610e4c816114b4565b50565b60007f01ffc9a7000000000000000000000000000000000000000000000000000000007bffffffffffffffffffffffffffffffffffffffffffffffffffffffff1916827bffffffffffffffffffffffffffffffffffffffffffffffffffffffff1916149050919050565b610ec281611a1d565b610f01576040517f08c379a0000000000000000000000000000000000000000000000000000000008152600401610ef890612b5b565b60405180910390fd5b50565b600033905090565b816004600083815260200190815260200160002060006101000a81548173ffffffffffffffffffffffffffffffffffffffff021916908373ffffffffffffffffffffffffffffffffffffffff160217905550808273ffffffffffffffffffffffffffffffffffffffff16610f7f83610946565b73ffffffffffffffffffffffffffffffffffffffff167f8c5be1e5ebec7d5bd14f71427d1e84f3dd0314c0f7b2291e5b200ac8c7c3b92560405160405180910390a45050565b600080610fd183610946565b90508073ffffffffffffffffffffffffffffffffffffffff168473ffffffffffffffffffffffffffffffffffffffff16148061101357506110128185610d37565b5b8061105157508373ffffffffffffffffffffffffffffffffffffffff1661103984610675565b73ffffffffffffffffffffffffffffffffffffffff16145b91505092915050565b8273ffffffffffffffffffffffffffffffffffffffff1661107a82610946565b73ffffffffffffffffffffffffffffffffffffffff16146110d0576040517f08c379a00000000000000000000000000000000000000000000000000000000081526004016110c790612e3e565b60405180910390fd5b600073ffffffffffffffffffffffffffffffffffffffff168273ffffffffffffffffffffffffffffffffffffffff161415611140576040517f08c379a000000000000000000000000000000000000000000000000000000000815260040161113790612ed0565b60405180910390fd5b61114b838383611a89565b611156600082610f0c565b6001600360008573ffffffffffffffffffffffffffffffffffffffff1673ffffffffffffffffffffffffffffffffffffffff16815260200190815260200160002060008282546111a69190612f1f565b925050819055506001600360008473ffffffffffffffffffffffffffffffffffffffff1673ffffffffffffffffffffffffffffffffffffffff16815260200190815260200160002060008282546111fd9190612f53565b92505081905550816002600083815260200190815260200160002060006101000a81548173ffffffffffffffffffffffffffffffffffffffff021916908373ffffffffffffffffffffffffffffffffffffffff160217905550808273ffffffffffffffffffffffffffffffffffffffff168473ffffffffffffffffffffffffffffffffffffffff167fddf252ad1be2c89b69c2b068fc378daa952ba7f163c4a11628f55a4df523b3ef60405160405180910390a46112bc838383611aa1565b505050565b600081600001549050919050565b6001816000016000828254019250508190555050565b6112ff828260405180602001604052806000815250611aa6565b5050565b60606000846040516020016113189190613041565b604051602081830303815290604052905061133283611b01565b818560405160200161134693929190613210565b6040516020818303038152906040529150509392505050565b61136882611a1d565b6113a7576040517f08c379a000000000000000000000000000000000000000000000000000000000815260040161139e906132ea565b60405180910390fd5b806006600084815260200190815260200160002090805190602001906113ce92919061210d565b505050565b6113db610f04565b73ffffffffffffffffffffffffffffffffffffffff166113f9610ad6565b73ffffffffffffffffffffffffffffffffffffffff161461144f576040517f08c379a000000000000000000000000000000000000000000000000000000000815260040161144690613356565b60405180910390fd5b565b611459611c62565b6000600760006101000a81548160ff0219169083151502179055507f5db9ee0a495bf2e6ff9c91a7834c1ba4fdd244a5e8aa4e537bd38aeae4b073aa61149d610f04565b6040516114aa91906123de565b60405180910390a1565b6000600760019054906101000a900473ffffffffffffffffffffffffffffffffffffffff16905081600760016101000a81548173ffffffffffffffffffffffffffffffffffffffff021916908373ffffffffffffffffffffffffffffffffffffffff1602179055508173ffffffffffffffffffffffffffffffffffffffff168173ffffffffffffffffffffffffffffffffffffffff167f8be0079c531659141344cd1fd0a4f28419497f9722a3daafe3b4186f6b6457e060405160405180910390a35050565b611582611cab565b6001600760006101000a81548160ff0219169083151502179055507f62e78cea01bee320cd4e420270b5ea74000d11b0c9f74754ebdbfc544b05a2586115c6610f04565b6040516115d391906123de565b60405180910390a1565b8173ffffffffffffffffffffffffffffffffffffffff168373ffffffffffffffffffffffffffffffffffffffff16141561164c576040517f08c379a0000000000000000000000000000000000000000000000000000000008152600401611643906133c2565b60405180910390fd5b80600560008573ffffffffffffffffffffffffffffffffffffffff1673ffffffffffffffffffffffffffffffffffffffff16815260200190815260200160002060008473ffffffffffffffffffffffffffffffffffffffff1673ffffffffffffffffffffffffffffffffffffffff16815260200190815260200160002060006101000a81548160ff0219169083151502179055508173ffffffffffffffffffffffffffffffffffffffff168373ffffffffffffffffffffffffffffffffffffffff167f17307eab39ab6107e8899845ad3d59bd9653f200f220920489ca2b5937696c318360405161173d9190612264565b60405180910390a3505050565b61175584848461105a565b61176184848484611cf5565b6117a0576040517f08c379a000000000000000000000000000000000000000000000000000000000815260040161179790613454565b60405180910390fd5b50505050565b60606117b182610eb9565b60006006600084815260200190815260200160002080546117d1906128bb565b80601f01602080910402602001604051908101604052809291908181526020018280546117fd906128bb565b801561184a5780601f1061181f5761010080835404028352916020019161184a565b820191906000526020600020905b81548152906001019060200180831161182d57829003601f168201915b50505050509050600061185b611e8c565b90506000815114156118715781925050506118b4565b6000825111156118a657808260405160200161188e929190613474565b604051602081830303815290604052925050506118b4565b6118af84611ea3565b925050505b919050565b60606000825114156118dc57604051806020016040528060008152509050611a18565b600060405180606001604052806040815260200161388f604091399050600060036002855161190b9190612f53565b61191591906134c7565b600461192191906134f8565b67ffffffffffffffff81111561193a576119396124c2565b5b6040519080825280601f01601f19166020018201604052801561196c5781602001600182028036833780820191505090505b509050600182016020820185865187015b808210156119d8576003820191508151603f8160121c168501518453600184019350603f81600c1c168501518453600184019350603f8160061c168501518453600184019350603f811685015184536001840193505061197d565b50506003865106600181146119f45760028114611a0757611a0f565b603d6001830353603d6002830353611a0f565b603d60018303535b50505080925050505b919050565b60008073ffffffffffffffffffffffffffffffffffffffff166002600084815260200190815260200160002060009054906101000a900473ffffffffffffffffffffffffffffffffffffffff1673ffffffffffffffffffffffffffffffffffffffff1614159050919050565b611a91611cab565b611a9c838383611f0b565b505050565b505050565b611ab08383611f10565b611abd6000848484611cf5565b611afc576040517f08c379a0000000000000000000000000000000000000000000000000000000008152600401611af390613454565b60405180910390fd5b505050565b60606000821415611b49576040518060400160405280600181526020017f30000000000000000000000000000000000000000000000000000000000000008152509050611c5d565b600082905060005b60008214611b7b578080611b6490613552565b915050600a82611b7491906134c7565b9150611b51565b60008167ffffffffffffffff811115611b9757611b966124c2565b5b6040519080825280601f01601f191660200182016040528015611bc95781602001600182028036833780820191505090505b5090505b60008514611c5657600182611be29190612f1f565b9150600a85611bf1919061359b565b6030611bfd9190612f53565b60f81b818381518110611c1357611c126135cc565b5b60200101907effffffffffffffffffffffffffffffffffffffffffffffffffffffffffffff1916908160001a905350600a85611c4f91906134c7565b9450611bcd565b8093505050505b919050565b611c6a61092f565b611ca9576040517f08c379a0000000000000000000000000000000000000000000000000000000008152600401611ca090613647565b60405180910390fd5b565b611cb361092f565b15611cf3576040517f08c379a0000000000000000000000000000000000000000000000000000000008152600401611cea906136b3565b60405180910390fd5b565b6000611d168473ffffffffffffffffffffffffffffffffffffffff166120ea565b15611e7f578373ffffffffffffffffffffffffffffffffffffffff1663150b7a02611d3f610f04565b8786866040518563ffffffff1660e01b8152600401611d619493929190613728565b602060405180830381600087803b158015611d7b57600080fd5b505af1925050508015611dac57506040513d601f19601f82011682018060405250810190611da99190613789565b60015b611e2f573d8060008114611ddc576040519150601f19603f3d011682016040523d82523d6000602084013e611de1565b606091505b50600081511415611e27576040517f08c379a0000000000000000000000000000000000000000000000000000000008152600401611e1e90613454565b60405180910390fd5b805181602001fd5b63150b7a0260e01b7bffffffffffffffffffffffffffffffffffffffffffffffffffffffff1916817bffffffffffffffffffffffffffffffffffffffffffffffffffffffff191614915050611e84565b600190505b949350505050565b606060405180602001604052806000815250905090565b6060611eae82610eb9565b6000611eb8611e8c565b90506000815111611ed85760405180602001604052806000815250611f03565b80611ee284611b01565b604051602001611ef3929190613474565b6040516020818303038152906040525b915050919050565b505050565b600073ffffffffffffffffffffffffffffffffffffffff168273ffffffffffffffffffffffffffffffffffffffff161415611f80576040517f08c379a0000000000000000000000000000000000000000000000000000000008152600401611f7790613802565b60405180910390fd5b611f8981611a1d565b15611fc9576040517f08c379a0000000000000000000000000000000000000000000000000000000008152600401611fc09061386e565b60405180910390fd5b611fd560008383611a89565b6001600360008473ffffffffffffffffffffffffffffffffffffffff1673ffffffffffffffffffffffffffffffffffffffff16815260200190815260200160002060008282546120259190612f53565b92505081905550816002600083815260200190815260200160002060006101000a81548173ffffffffffffffffffffffffffffffffffffffff021916908373ffffffffffffffffffffffffffffffffffffffff160217905550808273ffffffffffffffffffffffffffffffffffffffff16600073ffffffffffffffffffffffffffffffffffffffff167fddf252ad1be2c89b69c2b068fc378daa952ba7f163c4a11628f55a4df523b3ef60405160405180910390a46120e660008383611aa1565b5050565b6000808273ffffffffffffffffffffffffffffffffffffffff163b119050919050565b828054612119906128bb565b90600052602060002090601f01602090048101928261213b5760008555612182565b82601f1061215457805160ff1916838001178555612182565b82800160010185558215612182579182015b82811115612181578251825591602001919060010190612166565b5b50905061218f9190612193565b5090565b5b808211156121ac576000816000905550600101612194565b5090565b6000604051905090565b600080fd5b600080fd5b60007fffffffff0000000000000000000000000000000000000000000000000000000082169050919050565b6121f9816121c4565b811461220457600080fd5b50565b600081359050612216816121f0565b92915050565b600060208284031215612232576122316121ba565b5b600061224084828501612207565b91505092915050565b60008115159050919050565b61225e81612249565b82525050565b60006020820190506122796000830184612255565b92915050565b600081519050919050565b600082825260208201905092915050565b60005b838110156122b957808201518184015260208101905061229e565b838111156122c8576000848401525b50505050565b6000601f19601f8301169050919050565b60006122ea8261227f565b6122f4818561228a565b935061230481856020860161229b565b61230d816122ce565b840191505092915050565b6000602082019050818103600083015261233281846122df565b905092915050565b6000819050919050565b61234d8161233a565b811461235857600080fd5b50565b60008135905061236a81612344565b92915050565b600060208284031215612386576123856121ba565b5b60006123948482850161235b565b91505092915050565b600073ffffffffffffffffffffffffffffffffffffffff82169050919050565b60006123c88261239d565b9050919050565b6123d8816123bd565b82525050565b60006020820190506123f360008301846123cf565b92915050565b612402816123bd565b811461240d57600080fd5b50565b60008135905061241f816123f9565b92915050565b6000806040838503121561243c5761243b6121ba565b5b600061244a85828601612410565b925050602061245b8582860161235b565b9150509250929050565b60008060006060848603121561247e5761247d6121ba565b5b600061248c86828701612410565b935050602061249d86828701612410565b92505060406124ae8682870161235b565b9150509250925092565b600080fd5b600080fd5b7f4e487b7100000000000000000000000000000000000000000000000000000000600052604160045260246000fd5b6124fa826122ce565b810181811067ffffffffffffffff82111715612519576125186124c2565b5b80604052505050565b600061252c6121b0565b905061253882826124f1565b919050565b600067ffffffffffffffff821115612558576125576124c2565b5b612561826122ce565b9050602081019050919050565b82818337600083830152505050565b600061259061258b8461253d565b612522565b9050828152602081018484840111156125ac576125ab6124bd565b5b6125b784828561256e565b509392505050565b600082601f8301126125d4576125d36124b8565b5b81356125e484826020860161257d565b91505092915050565b60008060408385031215612604576126036121ba565b5b600083013567ffffffffffffffff811115612622576126216121bf565b5b61262e858286016125bf565b925050602083013567ffffffffffffffff81111561264f5761264e6121bf565b5b61265b858286016125bf565b9150509250929050565b60006020828403121561267b5761267a6121ba565b5b600061268984828501612410565b91505092915050565b61269b8161233a565b82525050565b60006020820190506126b66000830184612692565b92915050565b6126c581612249565b81146126d057600080fd5b50565b6000813590506126e2816126bc565b92915050565b600080604083850312156126ff576126fe6121ba565b5b600061270d85828601612410565b925050602061271e858286016126d3565b9150509250929050565b600067ffffffffffffffff821115612743576127426124c2565b5b61274c826122ce565b9050602081019050919050565b600061276c61276784612728565b612522565b905082815260208101848484011115612788576127876124bd565b5b61279384828561256e565b509392505050565b600082601f8301126127b0576127af6124b8565b5b81356127c0848260208601612759565b91505092915050565b600080600080608085870312156127e3576127e26121ba565b5b60006127f187828801612410565b945050602061280287828801612410565b93505060406128138782880161235b565b925050606085013567ffffffffffffffff811115612834576128336121bf565b5b6128408782880161279b565b91505092959194509250565b60008060408385031215612863576128626121ba565b5b600061287185828601612410565b925050602061288285828601612410565b9150509250929050565b7f4e487b7100000000000000000000000000000000000000000000000000000000600052602260045260246000fd5b600060028204905060018216806128d357607f821691505b602082108114156128e7576128e661288c565b5b50919050565b7f4552433732313a20617070726f76616c20746f2063757272656e74206f776e6560008201527f7200000000000000000000000000000000000000000000000000000000000000602082015250565b600061294960218361228a565b9150612954826128ed565b604082019050919050565b600060208201905081810360008301526129788161293c565b9050919050565b7f4552433732313a20617070726f76652063616c6c6572206973206e6f7420746f60008201527f6b656e206f776e6572206e6f7220617070726f76656420666f7220616c6c0000602082015250565b60006129db603e8361228a565b91506129e68261297f565b604082019050919050565b60006020820190508181036000830152612a0a816129ce565b9050919050565b7f4552433732313a2063616c6c6572206973206e6f7420746f6b656e206f776e6560008201527f72206e6f7220617070726f766564000000000000000000000000000000000000602082015250565b6000612a6d602e8361228a565b9150612a7882612a11565b604082019050919050565b60006020820190508181036000830152612a9c81612a60565b9050919050565b7f646f6e2774206861766520656e6f75676820746f6b656e000000000000000000600082015250565b6000612ad960178361228a565b9150612ae482612aa3565b602082019050919050565b60006020820190508181036000830152612b0881612acc565b9050919050565b7f4552433732313a20696e76616c696420746f6b656e2049440000000000000000600082015250565b6000612b4560188361228a565b9150612b5082612b0f565b602082019050919050565b60006020820190508181036000830152612b7481612b38565b9050919050565b7f4552433732313a2061646472657373207a65726f206973206e6f74206120766160008201527f6c6964206f776e65720000000000000000000000000000000000000000000000602082015250565b6000612bd760298361228a565b9150612be282612b7b565b604082019050919050565b60006020820190508181036000830152612c0681612bca565b9050919050565b600081905092915050565b6000612c238261227f565b612c2d8185612c0d565b9350612c3d81856020860161229b565b80840191505092915050565b6000612c558284612c18565b915081905092915050565b7f646174613a6170706c69636174696f6e2f6a736f6e3b6261736536342c000000600082015250565b6000612c96601d83612c0d565b9150612ca182612c60565b601d82019050919050565b6000612cb782612c89565b9150612cc38284612c18565b915081905092915050565b7f596f75206e6f7420616c726561647920636c61696d6564210000000000000000600082015250565b6000612d0460188361228a565b9150612d0f82612cce565b602082019050919050565b60006020820190508181036000830152612d3381612cf7565b9050919050565b7f4f776e61626c653a206e6577206f776e657220697320746865207a65726f206160008201527f6464726573730000000000000000000000000000000000000000000000000000602082015250565b6000612d9660268361228a565b9150612da182612d3a565b604082019050919050565b60006020820190508181036000830152612dc581612d89565b9050919050565b7f4552433732313a207472616e736665722066726f6d20696e636f72726563742060008201527f6f776e6572000000000000000000000000000000000000000000000000000000602082015250565b6000612e2860258361228a565b9150612e3382612dcc565b604082019050919050565b60006020820190508181036000830152612e5781612e1b565b9050919050565b7f4552433732313a207472616e7366657220746f20746865207a65726f2061646460008201527f7265737300000000000000000000000000000000000000000000000000000000602082015250565b6000612eba60248361228a565b9150612ec582612e5e565b604082019050919050565b60006020820190508181036000830152612ee981612ead565b9050919050565b7f4e487b7100000000000000000000000000000000000000000000000000000000600052601160045260246000fd5b6000612f2a8261233a565b9150612f358361233a565b925082821015612f4857612f47612ef0565b5b828203905092915050565b6000612f5e8261233a565b9150612f698361233a565b9250827fffffffffffffffffffffffffffffffffffffffffffffffffffffffffffffffff03821115612f9e57612f9d612ef0565b5b828201905092915050565b7f68747470733a2f2f000000000000000000000000000000000000000000000000600082015250565b6000612fdf600883612c0d565b9150612fea82612fa9565b600882019050919050565b7f2e697066732e7733732e6c696e6b2f6176617461722e706e6700000000000000600082015250565b600061302b601983612c0d565b915061303682612ff5565b601982019050919050565b600061304c82612fd2565b91506130588284612c18565b91506130638261301e565b915081905092915050565b7f7b226e616d65223a202277337323000000000000000000000000000000000000600082015250565b60006130a4600e83612c0d565b91506130af8261306e565b600e82019050919050565b7f2c226465736372697074696f6e223a202241206e6674206861636b6174686f6e60008201527f2070726f6a6563742066726f6d20617964656e206c6565222c00000000000000602082015250565b6000613116603983612c0d565b9150613121826130ba565b603982019050919050565b7f22696d616765223a220000000000000000000000000000000000000000000000600082015250565b6000613162600983612c0d565b915061316d8261312c565b600982019050919050565b7f222c2261747472696275746573223a0000000000000000000000000000000000600082015250565b60006131ae600f83612c0d565b91506131b982613178565b600f82019050919050565b7f7d00000000000000000000000000000000000000000000000000000000000000600082015250565b60006131fa600183612c0d565b9150613205826131c4565b600182019050919050565b600061321b82613097565b91506132278286612c18565b915061323282613109565b915061323d82613155565b91506132498285612c18565b9150613254826131a1565b91506132608284612c18565b915061326b826131ed565b9150819050949350505050565b7f45524337323155524953746f726167653a2055524920736574206f66206e6f6e60008201527f6578697374656e7420746f6b656e000000000000000000000000000000000000602082015250565b60006132d4602e8361228a565b91506132df82613278565b604082019050919050565b60006020820190508181036000830152613303816132c7565b9050919050565b7f4f776e61626c653a2063616c6c6572206973206e6f7420746865206f776e6572600082015250565b600061334060208361228a565b915061334b8261330a565b602082019050919050565b6000602082019050818103600083015261336f81613333565b9050919050565b7f4552433732313a20617070726f766520746f2063616c6c657200000000000000600082015250565b60006133ac60198361228a565b91506133b782613376565b602082019050919050565b600060208201905081810360008301526133db8161339f565b9050919050565b7f4552433732313a207472616e7366657220746f206e6f6e20455243373231526560008201527f63656976657220696d706c656d656e7465720000000000000000000000000000602082015250565b600061343e60328361228a565b9150613449826133e2565b604082019050919050565b6000602082019050818103600083015261346d81613431565b9050919050565b60006134808285612c18565b915061348c8284612c18565b91508190509392505050565b7f4e487b7100000000000000000000000000000000000000000000000000000000600052601260045260246000fd5b60006134d28261233a565b91506134dd8361233a565b9250826134ed576134ec613498565b5b828204905092915050565b60006135038261233a565b915061350e8361233a565b9250817fffffffffffffffffffffffffffffffffffffffffffffffffffffffffffffffff048311821515161561354757613546612ef0565b5b828202905092915050565b600061355d8261233a565b91507fffffffffffffffffffffffffffffffffffffffffffffffffffffffffffffffff8214156135905761358f612ef0565b5b600182019050919050565b60006135a68261233a565b91506135b18361233a565b9250826135c1576135c0613498565b5b828206905092915050565b7f4e487b7100000000000000000000000000000000000000000000000000000000600052603260045260246000fd5b7f5061757361626c653a206e6f7420706175736564000000000000000000000000600082015250565b600061363160148361228a565b915061363c826135fb565b602082019050919050565b6000602082019050818103600083015261366081613624565b9050919050565b7f5061757361626c653a2070617573656400000000000000000000000000000000600082015250565b600061369d60108361228a565b91506136a882613667565b602082019050919050565b600060208201905081810360008301526136cc81613690565b9050919050565b600081519050919050565b600082825260208201905092915050565b60006136fa826136d3565b61370481856136de565b935061371481856020860161229b565b61371d816122ce565b840191505092915050565b600060808201905061373d60008301876123cf565b61374a60208301866123cf565b6137576040830185612692565b818103606083015261376981846136ef565b905095945050505050565b600081519050613783816121f0565b92915050565b60006020828403121561379f5761379e6121ba565b5b60006137ad84828501613774565b91505092915050565b7f4552433732313a206d696e7420746f20746865207a65726f2061646472657373600082015250565b60006137ec60208361228a565b91506137f7826137b6565b602082019050919050565b6000602082019050818103600083015261381b816137df565b9050919050565b7f4552433732313a20746f6b656e20616c7265616479206d696e74656400000000600082015250565b6000613858601c8361228a565b915061386382613822565b602082019050919050565b600060208201905081810360008301526138878161384b565b905091905056fe4142434445464748494a4b4c4d4e4f505152535455565758595a6162636465666768696a6b6c6d6e6f707172737475767778797a303132333435363738392b2fa26469706673582212203e8072d3f9232cdb534a73fd1d016ddacdc97e421c439b6e97a815231ed9d5dd64736f6c63430008090033",
  "linkReferences": {},
  "deployedLinkReferences": {}
}