{
  "_format": "hh-sol-artifact-1",
  "contractName": "AwesomeCrossChainNFT",
  "sourceName": "contracts/AwesomeCrossChainNFT.sol",
  "abi": [
    {
      "inputs": [
        {
          "internalType": "uint256",
          "name": "originMintPrice",
          "type": "uint256"
        },
        {
          "internalType": "uint256",
          "name": "originChainId",
          "type": "uint256"
        }
      ],
      "stateMutability": "nonpayable",
      "type": "constructor"
    },
    {
      "inputs": [],
      "name": "NotEnoughToken",
      "type": "error"
    },
    {
      "anonymous": false,
      "inputs": [
        {
          "indexed": true,
          "internalType": "address",
          "name": "owner",
          "type": "address"
        },
        {
          "indexed": true,
          "internalType": "address",
          "name": "approved",
          "type": "address"
        },
        {
          "indexed": true,
          "internalType": "uint256",
          "name": "tokenId",
          "type": "uint256"
        }
      ],
      "name": "Approval",
      "type": "event"
    },
    {
      "anonymous": false,
      "inputs": [
        {
          "indexed": true,
          "internalType": "address",
          "name": "owner",
          "type": "address"
        },
        {
          "indexed": true,
          "internalType": "address",
          "name": "operator",
          "type": "address"
        },
        {
          "indexed": false,
          "internalType": "bool",
          "name": "approved",
          "type": "bool"
        }
      ],
      "name": "ApprovalForAll",
      "type": "event"
    },
    {
      "anonymous": false,
      "inputs": [
        {
          "indexed": true,
          "internalType": "uint32",
          "name": "domain",
          "type": "uint32"
        },
        {
          "indexed": false,
          "internalType": "uint256",
          "name": "gas",
          "type": "uint256"
        }
      ],
      "name": "DestinationGasSet",
      "type": "event"
    },
    {
      "anonymous": false,
      "inputs": [
        {
          "indexed": false,
          "internalType": "uint8",
          "name": "version",
          "type": "uint8"
        }
      ],
      "name": "Initialized",
      "type": "event"
    },
    {
      "anonymous": false,
      "inputs": [
        {
          "indexed": true,
          "internalType": "address",
          "name": "interchainGasPaymaster",
          "type": "address"
        }
      ],
      "name": "InterchainGasPaymasterSet",
      "type": "event"
    },
    {
      "anonymous": false,
      "inputs": [
        {
          "indexed": true,
          "internalType": "address",
          "name": "module",
          "type": "address"
        }
      ],
      "name": "InterchainSecurityModuleSet",
      "type": "event"
    },
    {
      "anonymous": false,
      "inputs": [
        {
          "indexed": true,
          "internalType": "address",
          "name": "mailbox",
          "type": "address"
        }
      ],
      "name": "MailboxSet",
      "type": "event"
    },
    {
      "anonymous": false,
      "inputs": [
        {
          "indexed": true,
          "internalType": "address",
          "name": "previousOwner",
          "type": "address"
        },
        {
          "indexed": true,
          "internalType": "address",
          "name": "newOwner",
          "type": "address"
        }
      ],
      "name": "OwnershipTransferred",
      "type": "event"
    },
    {
      "anonymous": false,
      "inputs": [
        {
          "indexed": true,
          "internalType": "uint32",
          "name": "origin",
          "type": "uint32"
        },
        {
          "indexed": true,
          "internalType": "bytes32",
          "name": "recipient",
          "type": "bytes32"
        },
        {
          "indexed": false,
          "internalType": "uint256",
          "name": "amount",
          "type": "uint256"
        }
      ],
      "name": "ReceivedTransferRemote",
      "type": "event"
    },
    {
      "anonymous": false,
      "inputs": [
        {
          "indexed": true,
          "internalType": "uint32",
          "name": "domain",
          "type": "uint32"
        },
        {
          "indexed": true,
          "internalType": "bytes32",
          "name": "router",
          "type": "bytes32"
        }
      ],
      "name": "RemoteRouterEnrolled",
      "type": "event"
    },
    {
      "anonymous": false,
      "inputs": [
        {
          "indexed": true,
          "internalType": "uint32",
          "name": "destination",
          "type": "uint32"
        },
        {
          "indexed": true,
          "internalType": "bytes32",
          "name": "recipient",
          "type": "bytes32"
        },
        {
          "indexed": false,
          "internalType": "uint256",
          "name": "amount",
          "type": "uint256"
        }
      ],
      "name": "SentTransferRemote",
      "type": "event"
    },
    {
      "anonymous": false,
      "inputs": [
        {
          "indexed": true,
          "internalType": "address",
          "name": "from",
          "type": "address"
        },
        {
          "indexed": true,
          "internalType": "address",
          "name": "to",
          "type": "address"
        },
        {
          "indexed": true,
          "internalType": "uint256",
          "name": "tokenId",
          "type": "uint256"
        }
      ],
      "name": "Transfer",
      "type": "event"
    },
    {
      "inputs": [
        {
          "internalType": "address",
          "name": "",
          "type": "address"
        },
        {
          "internalType": "uint256",
          "name": "",
          "type": "uint256"
        }
      ],
      "name": "OwnTokenList",
      "outputs": [
        {
          "internalType": "uint256",
          "name": "",
          "type": "uint256"
        }
      ],
      "stateMutability": "view",
      "type": "function"
    },
    {
      "inputs": [],
      "name": "_originMintPrice",
      "outputs": [
        {
          "internalType": "uint256",
          "name": "",
          "type": "uint256"
        }
      ],
      "stateMutability": "view",
      "type": "function"
    },
    {
      "inputs": [
        {
          "internalType": "address",
          "name": "to",
          "type": "address"
        },
        {
          "internalType": "uint256",
          "name": "tokenId",
          "type": "uint256"
        }
      ],
      "name": "approve",
      "outputs": [],
      "stateMutability": "nonpayable",
      "type": "function"
    },
    {
      "inputs": [
        {
          "internalType": "address",
          "name": "owner",
          "type": "address"
        }
      ],
      "name": "balanceOf",
      "outputs": [
        {
          "internalType": "uint256",
          "name": "",
          "type": "uint256"
        }
      ],
      "stateMutability": "view",
      "type": "function"
    },
    {
      "inputs": [
        {
          "internalType": "uint32",
          "name": "",
          "type": "uint32"
        }
      ],
      "name": "destinationGas",
      "outputs": [
        {
          "internalType": "uint256",
          "name": "",
          "type": "uint256"
        }
      ],
      "stateMutability": "view",
      "type": "function"
    },
    {
      "inputs": [],
      "name": "domains",
      "outputs": [
        {
          "internalType": "uint32[]",
          "name": "",
          "type": "uint32[]"
        }
      ],
      "stateMutability": "view",
      "type": "function"
    },
    {
      "inputs": [
        {
          "internalType": "uint32",
          "name": "_domain",
          "type": "uint32"
        },
        {
          "internalType": "bytes32",
          "name": "_router",
          "type": "bytes32"
        }
      ],
      "name": "enrollRemoteRouter",
      "outputs": [],
      "stateMutability": "nonpayable",
      "type": "function"
    },
    {
      "inputs": [
        {
          "internalType": "uint32[]",
          "name": "_domains",
          "type": "uint32[]"
        },
        {
          "internalType": "bytes32[]",
          "name": "_addresses",
          "type": "bytes32[]"
        }
      ],
      "name": "enrollRemoteRouters",
      "outputs": [],
      "stateMutability": "nonpayable",
      "type": "function"
    },
    {
      "inputs": [
        {
          "internalType": "uint256",
          "name": "tokenId",
          "type": "uint256"
        }
      ],
      "name": "getApproved",
      "outputs": [
        {
          "internalType": "address",
          "name": "",
          "type": "address"
        }
      ],
      "stateMutability": "view",
      "type": "function"
    },
    {
      "inputs": [
        {
          "internalType": "address",
          "name": "key",
          "type": "address"
        }
      ],
      "name": "getTokenListArray",
      "outputs": [
        {
          "internalType": "uint256[]",
          "name": "",
          "type": "uint256[]"
        }
      ],
      "stateMutability": "view",
      "type": "function"
    },
    {
      "inputs": [
        {
          "internalType": "uint32",
          "name": "_origin",
          "type": "uint32"
        },
        {
          "internalType": "bytes32",
          "name": "_sender",
          "type": "bytes32"
        },
        {
          "internalType": "bytes",
          "name": "_message",
          "type": "bytes"
        }
      ],
      "name": "handle",
      "outputs": [],
      "stateMutability": "nonpayable",
      "type": "function"
    },
    {
      "inputs": [
        {
          "internalType": "address",
          "name": "_mailbox",
          "type": "address"
        },
        {
          "internalType": "address",
          "name": "_interchainGasPaymaster",
          "type": "address"
        },
        {
          "internalType": "string",
          "name": "_name",
          "type": "string"
        },
        {
          "internalType": "string",
          "name": "_symbol",
          "type": "string"
        }
      ],
      "name": "initialize",
      "outputs": [],
      "stateMutability": "nonpayable",
      "type": "function"
    },
    {
      "inputs": [],
      "name": "interchainGasPaymaster",
      "outputs": [
        {
          "internalType": "contract IInterchainGasPaymaster",
          "name": "",
          "type": "address"
        }
      ],
      "stateMutability": "view",
      "type": "function"
    },
    {
      "inputs": [],
      "name": "interchainSecurityModule",
      "outputs": [
        {
          "internalType": "contract IInterchainSecurityModule",
          "name": "",
          "type": "address"
        }
      ],
      "stateMutability": "view",
      "type": "function"
    },
    {
      "inputs": [
        {
          "internalType": "address",
          "name": "owner",
          "type": "address"
        },
        {
          "internalType": "address",
          "name": "operator",
          "type": "address"
        }
      ],
      "name": "isApprovedForAll",
      "outputs": [
        {
          "internalType": "bool",
          "name": "",
          "type": "bool"
        }
      ],
      "stateMutability": "view",
      "type": "function"
    },
    {
      "inputs": [],
      "name": "mailbox",
      "outputs": [
        {
          "internalType": "contract IMailbox",
          "name": "",
          "type": "address"
        }
      ],
      "stateMutability": "view",
      "type": "function"
    },
    {
      "inputs": [],
      "name": "name",
      "outputs": [
        {
          "internalType": "string",
          "name": "",
          "type": "string"
        }
      ],
      "stateMutability": "view",
      "type": "function"
    },
    {
      "inputs": [
        {
          "internalType": "string",
          "name": "cid",
          "type": "string"
        }
      ],
      "name": "originMint",
      "outputs": [],
      "stateMutability": "payable",
      "type": "function"
    },
    {
      "inputs": [],
      "name": "owner",
      "outputs": [
        {
          "internalType": "address",
          "name": "",
          "type": "address"
        }
      ],
      "stateMutability": "view",
      "type": "function"
    },
    {
      "inputs": [
        {
          "internalType": "uint256",
          "name": "tokenId",
          "type": "uint256"
        }
      ],
      "name": "ownerOf",
      "outputs": [
        {
          "internalType": "address",
          "name": "",
          "type": "address"
        }
      ],
      "stateMutability": "view",
      "type": "function"
    },
    {
      "inputs": [
        {
          "internalType": "uint32",
          "name": "_destinationDomain",
          "type": "uint32"
        }
      ],
      "name": "quoteGasPayment",
      "outputs": [
        {
          "internalType": "uint256",
          "name": "_gasPayment",
          "type": "uint256"
        }
      ],
      "stateMutability": "view",
      "type": "function"
    },
    {
      "inputs": [],
      "name": "renounceOwnership",
      "outputs": [],
      "stateMutability": "nonpayable",
      "type": "function"
    },
    {
      "inputs": [
        {
          "internalType": "uint32",
          "name": "_domain",
          "type": "uint32"
        }
      ],
      "name": "routers",
      "outputs": [
        {
          "internalType": "bytes32",
          "name": "",
          "type": "bytes32"
        }
      ],
      "stateMutability": "view",
      "type": "function"
    },
    {
      "inputs": [
        {
          "internalType": "address",
          "name": "from",
          "type": "address"
        },
        {
          "internalType": "address",
          "name": "to",
          "type": "address"
        },
        {
          "internalType": "uint256",
          "name": "tokenId",
          "type": "uint256"
        }
      ],
      "name": "safeTransferFrom",
      "outputs": [],
      "stateMutability": "nonpayable",
      "type": "function"
    },
    {
      "inputs": [
        {
          "internalType": "address",
          "name": "from",
          "type": "address"
        },
        {
          "internalType": "address",
          "name": "to",
          "type": "address"
        },
        {
          "internalType": "uint256",
          "name": "tokenId",
          "type": "uint256"
        },
        {
          "internalType": "bytes",
          "name": "data",
          "type": "bytes"
        }
      ],
      "name": "safeTransferFrom",
      "outputs": [],
      "stateMutability": "nonpayable",
      "type": "function"
    },
    {
      "inputs": [
        {
          "internalType": "address",
          "name": "operator",
          "type": "address"
        },
        {
          "internalType": "bool",
          "name": "approved",
          "type": "bool"
        }
      ],
      "name": "setApprovalForAll",
      "outputs": [],
      "stateMutability": "nonpayable",
      "type": "function"
    },
    {
      "inputs": [
        {
          "components": [
            {
              "internalType": "uint32",
              "name": "domain",
              "type": "uint32"
            },
            {
              "internalType": "uint256",
              "name": "gas",
              "type": "uint256"
            }
          ],
          "internalType": "struct GasRouter.GasRouterConfig[]",
          "name": "gasConfigs",
          "type": "tuple[]"
        }
      ],
      "name": "setDestinationGas",
      "outputs": [],
      "stateMutability": "nonpayable",
      "type": "function"
    },
    {
      "inputs": [
        {
          "internalType": "address",
          "name": "_interchainGasPaymaster",
          "type": "address"
        }
      ],
      "name": "setInterchainGasPaymaster",
      "outputs": [],
      "stateMutability": "nonpayable",
      "type": "function"
    },
    {
      "inputs": [
        {
          "internalType": "address",
          "name": "_module",
          "type": "address"
        }
      ],
      "name": "setInterchainSecurityModule",
      "outputs": [],
      "stateMutability": "nonpayable",
      "type": "function"
    },
    {
      "inputs": [
        {
          "internalType": "address",
          "name": "_mailbox",
          "type": "address"
        }
      ],
      "name": "setMailbox",
      "outputs": [],
      "stateMutability": "nonpayable",
      "type": "function"
    },
    {
      "inputs": [
        {
          "internalType": "bytes4",
          "name": "interfaceId",
          "type": "bytes4"
        }
      ],
      "name": "supportsInterface",
      "outputs": [
        {
          "internalType": "bool",
          "name": "",
          "type": "bool"
        }
      ],
      "stateMutability": "view",
      "type": "function"
    },
    {
      "inputs": [],
      "name": "symbol",
      "outputs": [
        {
          "internalType": "string",
          "name": "",
          "type": "string"
        }
      ],
      "stateMutability": "view",
      "type": "function"
    },
    {
      "inputs": [
        {
          "internalType": "uint256",
          "name": "tokenId",
          "type": "uint256"
        }
      ],
      "name": "tokenURI",
      "outputs": [
        {
          "internalType": "string",
          "name": "",
          "type": "string"
        }
      ],
      "stateMutability": "view",
      "type": "function"
    },
    {
      "inputs": [
        {
          "internalType": "address",
          "name": "from",
          "type": "address"
        },
        {
          "internalType": "address",
          "name": "to",
          "type": "address"
        },
        {
          "internalType": "uint256",
          "name": "tokenId",
          "type": "uint256"
        }
      ],
      "name": "transferFrom",
      "outputs": [],
      "stateMutability": "nonpayable",
      "type": "function"
    },
    {
      "inputs": [
        {
          "internalType": "address",
          "name": "newOwner",
          "type": "address"
        }
      ],
      "name": "transferOwnership",
      "outputs": [],
      "stateMutability": "nonpayable",
      "type": "function"
    },
    {
      "inputs": [
        {
          "internalType": "uint32",
          "name": "_destination",
          "type": "uint32"
        },
        {
          "internalType": "bytes32",
          "name": "_recipient",
          "type": "bytes32"
        },
        {
          "internalType": "uint256",
          "name": "_amountOrId",
          "type": "uint256"
        }
      ],
      "name": "transferRemote",
      "outputs": [
        {
          "internalType": "bytes32",
          "name": "messageId",
          "type": "bytes32"
        }
      ],
      "stateMutability": "payable",
      "type": "function"
    }
  ],
  "bytecode": "0x60c06040523480156200001157600080fd5b5060405162005dc738038062005dc783398181016040528101906200003791906200008f565b81608081815250508060a081815250505050620000d6565b600080fd5b6000819050919050565b620000698162000054565b81146200007557600080fd5b50565b60008151905062000089816200005e565b92915050565b60008060408385031215620000a957620000a86200004f565b5b6000620000b98582860162000078565b9250506020620000cc8582860162000078565b9150509250929050565b60805160a051615cc762000100600039600050506000818161122c01526116630152615cc76000f3fe60806040526004361061020f5760003560e01c80638698e42811610118578063d5438eae116100a0578063e985e9c51161006f578063e985e9c5146107b7578063f1bd6f0a146107f4578063f2ed8c531461081d578063f2fde38b1461085a578063f3c61d6b146108835761020f565b8063d5438eae1461070d578063db6152ce14610738578063de523cf314610763578063e9198bf91461078e5761020f565b8063a22cb465116100e7578063a22cb4651461062c578063b1bd643614610655578063b49c53a71461067e578063b88d4fde146106a7578063c87b56dd146106d05761020f565b80638698e4281461057d5780638da5cb5b1461059957806395d89b41146105c45780639c42efce146105ef5761020f565b806342842e0e1161019b57806370a082311161016a57806370a082311461047f578063715018a6146104bc57806372886156146104d3578063775313a11461051057806381b4e8b41461054d5761020f565b806342842e0e146103c5578063440df4f4146103ee57806356d5d475146104195780636352211e146104425761020f565b80630e72cc06116101e25780630e72cc06146102e25780632016a0d21461030b57806323b872dd146103345780632ead72f61461035d57806339bb4ad91461039a5761020f565b806301ffc9a71461021457806306fdde0314610251578063081812fc1461027c578063095ea7b3146102b9575b600080fd5b34801561022057600080fd5b5061023b60048036038101906102369190613c34565b6108ac565b6040516102489190613c7c565b60405180910390f35b34801561025d57600080fd5b5061026661098e565b6040516102739190613d30565b60405180910390f35b34801561028857600080fd5b506102a3600480360381019061029e9190613d88565b610a20565b6040516102b09190613df6565b60405180910390f35b3480156102c557600080fd5b506102e060048036038101906102db9190613e3d565b610a66565b005b3480156102ee57600080fd5b5061030960048036038101906103049190613e7d565b610b7d565b005b34801561031757600080fd5b50610332600480360381019061032d9190613fdf565b610b91565b005b34801561034057600080fd5b5061035b6004803603810190610356919061407e565b610cdf565b005b34801561036957600080fd5b50610384600480360381019061037f919061410d565b610d3f565b6040516103919190614153565b60405180910390f35b3480156103a657600080fd5b506103af610d8f565b6040516103bc91906141cd565b60405180910390f35b3480156103d157600080fd5b506103ec60048036038101906103e7919061407e565b610db5565b005b3480156103fa57600080fd5b50610403610dd5565b60405161041091906142a6565b60405180910390f35b34801561042557600080fd5b50610440600480360381019061043b9190614354565b610eb0565b005b34801561044e57600080fd5b5061046960048036038101906104649190613d88565b610fbb565b6040516104769190613df6565b60405180910390f35b34801561048b57600080fd5b506104a660048036038101906104a19190613e7d565b611041565b6040516104b391906143d7565b60405180910390f35b3480156104c857600080fd5b506104d16110f8565b005b3480156104df57600080fd5b506104fa60048036038101906104f59190613e7d565b61110c565b60405161050791906144b0565b60405180910390f35b34801561051c57600080fd5b506105376004803603810190610532919061410d565b6111a4565b60405161054491906143d7565b60405180910390f35b610567600480360381019061056291906144d2565b6111bd565b6040516105749190614153565b60405180910390f35b6105976004803603810190610592919061457b565b61122a565b005b3480156105a557600080fd5b506105ae61132e565b6040516105bb9190613df6565b60405180910390f35b3480156105d057600080fd5b506105d9611358565b6040516105e69190613d30565b60405180910390f35b3480156105fb57600080fd5b5061061660048036038101906106119190613e3d565b6113ea565b60405161062391906143d7565b60405180910390f35b34801561063857600080fd5b50610653600480360381019061064e91906145f4565b61141c565b005b34801561066157600080fd5b5061067c6004803603810190610677919061468a565b611432565b005b34801561068a57600080fd5b506106a560048036038101906106a091906146d7565b6114b1565b005b3480156106b357600080fd5b506106ce60048036038101906106c991906147b8565b6114c7565b005b3480156106dc57600080fd5b506106f760048036038101906106f29190613d88565b611529565b6040516107049190613d30565b60405180910390f35b34801561071957600080fd5b5061072261163b565b60405161072f919061485c565b60405180910390f35b34801561074457600080fd5b5061074d611661565b60405161075a91906143d7565b60405180910390f35b34801561076f57600080fd5b50610778611685565b6040516107859190614898565b60405180910390f35b34801561079a57600080fd5b506107b560048036038101906107b0919061495f565b6116ab565b005b3480156107c357600080fd5b506107de60048036038101906107d991906149e0565b61176e565b6040516107eb9190613c7c565b60405180910390f35b34801561080057600080fd5b5061081b60048036038101906108169190613e7d565b611802565b005b34801561082957600080fd5b50610844600480360381019061083f919061410d565b611816565b60405161085191906143d7565b60405180910390f35b34801561086657600080fd5b50610881600480360381019061087c9190613e7d565b6118dd565b005b34801561088f57600080fd5b506108aa60048036038101906108a59190613e7d565b611960565b005b60007f80ac58cd000000000000000000000000000000000000000000000000000000007bffffffffffffffffffffffffffffffffffffffffffffffffffffffff1916827bffffffffffffffffffffffffffffffffffffffffffffffffffffffff1916148061097757507f5b5e139f000000000000000000000000000000000000000000000000000000007bffffffffffffffffffffffffffffffffffffffffffffffffffffffff1916827bffffffffffffffffffffffffffffffffffffffffffffffffffffffff1916145b80610987575061098682611974565b5b9050919050565b60606065805461099d90614a4f565b80601f01602080910402602001604051908101604052809291908181526020018280546109c990614a4f565b8015610a165780601f106109eb57610100808354040283529160200191610a16565b820191906000526020600020905b8154815290600101906020018083116109f957829003601f168201915b5050505050905090565b6000610a2b826119de565b6069600083815260200190815260200160002060009054906101000a900473ffffffffffffffffffffffffffffffffffffffff169050919050565b6000610a7182610fbb565b90508073ffffffffffffffffffffffffffffffffffffffff168373ffffffffffffffffffffffffffffffffffffffff1603610ae1576040517f08c379a0000000000000000000000000000000000000000000000000000000008152600401610ad890614af2565b60405180910390fd5b8073ffffffffffffffffffffffffffffffffffffffff16610b00611a29565b73ffffffffffffffffffffffffffffffffffffffff161480610b2f5750610b2e81610b29611a29565b61176e565b5b610b6e576040517f08c379a0000000000000000000000000000000000000000000000000000000008152600401610b6590614b84565b60405180910390fd5b610b788383611a31565b505050565b610b85611aea565b610b8e81611b68565b50565b60008060019054906101000a900460ff16159050808015610bc25750600160008054906101000a900460ff1660ff16105b80610bef5750610bd130611c6e565b158015610bee5750600160008054906101000a900460ff1660ff16145b5b610c2e576040517f08c379a0000000000000000000000000000000000000000000000000000000008152600401610c2590614c16565b60405180910390fd5b60016000806101000a81548160ff021916908360ff1602179055508015610c6b576001600060016101000a81548160ff0219169083151502179055505b610c758585611c91565b610c7f8383611cf6565b8015610cd85760008060016101000a81548160ff0219169083151502179055507f7f26b83ff96e1f2b6a682f133852f6798a09c465da95921460cefb38474024986001604051610ccf9190614c7e565b60405180910390a15b5050505050565b610cf0610cea611a29565b82611d53565b610d2f576040517f08c379a0000000000000000000000000000000000000000000000000000000008152600401610d2690614d0b565b60405180910390fd5b610d3a838383611de8565b505050565b6000610d5c8263ffffffff1661012e6120e190919063ffffffff16565b15610d8357610d7c8263ffffffff1661012e61210490919063ffffffff16565b9050610d8a565b6000801b90505b919050565b60fc60009054906101000a900473ffffffffffffffffffffffffffffffffffffffff1681565b610dd0838383604051806020016040528060008152506114c7565b505050565b60606000610de461012e612127565b90506000818054905067ffffffffffffffff811115610e0657610e05613eb4565b5b604051908082528060200260200182016040528015610e345781602001602082028036833780820191505090505b50905060005b8280549050811015610ea757828181548110610e5957610e58614d2b565b5b906000526020600020015460001c828281518110610e7a57610e79614d2b565b5b602002602001019063ffffffff16908163ffffffff16815250508080610e9f90614d89565b915050610e3a565b50809250505090565b60fb60009054906101000a900473ffffffffffffffffffffffffffffffffffffffff1673ffffffffffffffffffffffffffffffffffffffff163373ffffffffffffffffffffffffffffffffffffffff1614610f40576040517f08c379a0000000000000000000000000000000000000000000000000000000008152600401610f3790614e1d565b60405180910390fd5b8383610f4c828261213d565b604051806080016040528060438152602001615c4f6043913990610fa6576040517f08c379a0000000000000000000000000000000000000000000000000000000008152600401610f9d9190613d30565b60405180910390fd5b50610fb386868686612152565b505050505050565b600080610fc7836121dc565b9050600073ffffffffffffffffffffffffffffffffffffffff168173ffffffffffffffffffffffffffffffffffffffff1603611038576040517f08c379a000000000000000000000000000000000000000000000000000000000815260040161102f90614e89565b60405180910390fd5b80915050919050565b60008073ffffffffffffffffffffffffffffffffffffffff168273ffffffffffffffffffffffffffffffffffffffff16036110b1576040517f08c379a00000000000000000000000000000000000000000000000000000000081526004016110a890614f1b565b60405180910390fd5b606860008373ffffffffffffffffffffffffffffffffffffffff1673ffffffffffffffffffffffffffffffffffffffff168152602001908152602001600020549050919050565b611100611aea565b61110a6000612219565b565b606061016360008373ffffffffffffffffffffffffffffffffffffffff1673ffffffffffffffffffffffffffffffffffffffff16815260200190815260200160002080548060200260200160405190810160405280929190818152602001828054801561119857602002820191906000526020600020905b815481526020019060010190808311611184575b50505050509050919050565b6101626020528060005260406000206000915090505481565b6000806111c9836122df565b90506111e1856111da868685612422565b3433612451565b9150838563ffffffff167fd229aacb94204188fe8042965fa6b269c62dc5818b21238779ab64bdd17efeec8560405161121a91906143d7565b60405180910390a3509392505050565b7f0000000000000000000000000000000000000000000000000000000000000000341015611284576040517f5acb547600000000000000000000000000000000000000000000000000000000815260040160405180910390fd5b600061129161016461248a565b905061129e610164612498565b6112a833826124ae565b60006112b58484846124cc565b90506112c18282612503565b61016360003373ffffffffffffffffffffffffffffffffffffffff1673ffffffffffffffffffffffffffffffffffffffff16815260200190815260200160002082908060018154018082558091505060019003906000526020600020016000909190919091505550505050565b600060c960009054906101000a900473ffffffffffffffffffffffffffffffffffffffff16905090565b60606066805461136790614a4f565b80601f016020809104026020016040519081016040528092919081815260200182805461139390614a4f565b80156113e05780601f106113b5576101008083540402835291602001916113e0565b820191906000526020600020905b8154815290600101906020018083116113c357829003601f168201915b5050505050905090565b610163602052816000526040600020818154811061140757600080fd5b90600052602060002001600091509150505481565b61142e611427611a29565b8383612577565b5050565b61143a611aea565b60005b828290508110156114ac5761149883838381811061145e5761145d614d2b565b5b9050604002016000016020810190611476919061410d565b84848481811061148957611488614d2b565b5b905060400201602001356126e3565b6001816114a59190614f3b565b905061143d565b505050565b6114b9611aea565b6114c3828261274a565b5050565b6114d86114d2611a29565b83611d53565b611517576040517f08c379a000000000000000000000000000000000000000000000000000000000815260040161150e90614d0b565b60405180910390fd5b6115238484848461279f565b50505050565b6060611534826119de565b600060976000848152602001908152602001600020805461155490614a4f565b80601f016020809104026020016040519081016040528092919081815260200182805461158090614a4f565b80156115cd5780601f106115a2576101008083540402835291602001916115cd565b820191906000526020600020905b8154815290600101906020018083116115b057829003601f168201915b5050505050905060006115de6127fb565b905060008151036115f3578192505050611636565b600082511115611628578082604051602001611610929190614fcd565b60405160208183030381529060405292505050611636565b61163184612812565b925050505b919050565b60fb60009054906101000a900473ffffffffffffffffffffffffffffffffffffffff1681565b7f000000000000000000000000000000000000000000000000000000000000000081565b60fd60009054906101000a900473ffffffffffffffffffffffffffffffffffffffff1681565b6116b3611aea565b8181905084849050146116fb576040517f08c379a00000000000000000000000000000000000000000000000000000000081526004016116f29061503d565b60405180910390fd5b60005b848490508110156117675761175385858381811061171f5761171e614d2b565b5b9050602002016020810190611734919061410d565b84848481811061174757611746614d2b565b5b9050602002013561274a565b6001816117609190614f3b565b90506116fe565b5050505050565b6000606a60008473ffffffffffffffffffffffffffffffffffffffff1673ffffffffffffffffffffffffffffffffffffffff16815260200190815260200160002060008373ffffffffffffffffffffffffffffffffffffffff1673ffffffffffffffffffffffffffffffffffffffff16815260200190815260200160002060009054906101000a900460ff16905092915050565b61180a611aea565b6118138161287a565b50565b600060fc60009054906101000a900473ffffffffffffffffffffffffffffffffffffffff1673ffffffffffffffffffffffffffffffffffffffff1663a69297938361016260008663ffffffff1663ffffffff168152602001908152602001600020546040518363ffffffff1660e01b815260040161189592919061506c565b602060405180830381865afa1580156118b2573d6000803e3d6000fd5b505050506040513d601f19601f820116820180604052508101906118d691906150aa565b9050919050565b6118e5611aea565b600073ffffffffffffffffffffffffffffffffffffffff168173ffffffffffffffffffffffffffffffffffffffff1603611954576040517f08c379a000000000000000000000000000000000000000000000000000000000815260040161194b90615149565b60405180910390fd5b61195d81612219565b50565b611968611aea565b6119718161294b565b50565b60007f01ffc9a7000000000000000000000000000000000000000000000000000000007bffffffffffffffffffffffffffffffffffffffffffffffffffffffff1916827bffffffffffffffffffffffffffffffffffffffffffffffffffffffff1916149050919050565b6119e781612a1c565b611a26576040517f08c379a0000000000000000000000000000000000000000000000000000000008152600401611a1d90614e89565b60405180910390fd5b50565b600033905090565b816069600083815260200190815260200160002060006101000a81548173ffffffffffffffffffffffffffffffffffffffff021916908373ffffffffffffffffffffffffffffffffffffffff160217905550808273ffffffffffffffffffffffffffffffffffffffff16611aa483610fbb565b73ffffffffffffffffffffffffffffffffffffffff167f8c5be1e5ebec7d5bd14f71427d1e84f3dd0314c0f7b2291e5b200ac8c7c3b92560405160405180910390a45050565b611af2611a29565b73ffffffffffffffffffffffffffffffffffffffff16611b1061132e565b73ffffffffffffffffffffffffffffffffffffffff1614611b66576040517f08c379a0000000000000000000000000000000000000000000000000000000008152600401611b5d906151b5565b60405180910390fd5b565b600073ffffffffffffffffffffffffffffffffffffffff168173ffffffffffffffffffffffffffffffffffffffff161480611ba85750611ba781612a5d565b5b611be7576040517f08c379a0000000000000000000000000000000000000000000000000000000008152600401611bde90615221565b60405180910390fd5b8060fd60006101000a81548173ffffffffffffffffffffffffffffffffffffffff021916908373ffffffffffffffffffffffffffffffffffffffff1602179055508073ffffffffffffffffffffffffffffffffffffffff167ffec811ed4e60aebdaf7a79cad8a97196bf56e35362f039705598226d30c9d24860405160405180910390a250565b6000808273ffffffffffffffffffffffffffffffffffffffff163b119050919050565b600060019054906101000a900460ff16611ce0576040517f08c379a0000000000000000000000000000000000000000000000000000000008152600401611cd7906152b3565b60405180910390fd5b611ce98161287a565b611cf282612a80565b5050565b600060019054906101000a900460ff16611d45576040517f08c379a0000000000000000000000000000000000000000000000000000000008152600401611d3c906152b3565b60405180910390fd5b611d4f8282612ae3565b5050565b600080611d5f83610fbb565b90508073ffffffffffffffffffffffffffffffffffffffff168473ffffffffffffffffffffffffffffffffffffffff161480611da15750611da0818561176e565b5b80611ddf57508373ffffffffffffffffffffffffffffffffffffffff16611dc784610a20565b73ffffffffffffffffffffffffffffffffffffffff16145b91505092915050565b8273ffffffffffffffffffffffffffffffffffffffff16611e0882610fbb565b73ffffffffffffffffffffffffffffffffffffffff1614611e5e576040517f08c379a0000000000000000000000000000000000000000000000000000000008152600401611e5590615345565b60405180910390fd5b600073ffffffffffffffffffffffffffffffffffffffff168273ffffffffffffffffffffffffffffffffffffffff1603611ecd576040517f08c379a0000000000000000000000000000000000000000000000000000000008152600401611ec4906153d7565b60405180910390fd5b611eda8383836001612b64565b8273ffffffffffffffffffffffffffffffffffffffff16611efa82610fbb565b73ffffffffffffffffffffffffffffffffffffffff1614611f50576040517f08c379a0000000000000000000000000000000000000000000000000000000008152600401611f4790615345565b60405180910390fd5b6069600082815260200190815260200160002060006101000a81549073ffffffffffffffffffffffffffffffffffffffff02191690556001606860008573ffffffffffffffffffffffffffffffffffffffff1673ffffffffffffffffffffffffffffffffffffffff168152602001908152602001600020600082825403925050819055506001606860008473ffffffffffffffffffffffffffffffffffffffff1673ffffffffffffffffffffffffffffffffffffffff16815260200190815260200160002060008282540192505081905550816067600083815260200190815260200160002060006101000a81548173ffffffffffffffffffffffffffffffffffffffff021916908373ffffffffffffffffffffffffffffffffffffffff160217905550808273ffffffffffffffffffffffffffffffffffffffff168473ffffffffffffffffffffffffffffffffffffffff167fddf252ad1be2c89b69c2b068fc378daa952ba7f163c4a11628f55a4df523b3ef60405160405180910390a46120dc8383836001612b6a565b505050565b60006120fc8260001b84600001612b7090919063ffffffff16565b905092915050565b600061211f8260001b84600001612b9090919063ffffffff16565b905092915050565b6000816000016000016000016000019050919050565b60008161214984610d3f565b14905092915050565b600061215e8383612c0c565b9050600061216c8484612c35565b905036600061217b8686612c61565b9150915061219361218b85612c82565b848484612c8f565b838863ffffffff167fba20947a325f450d232530e5f5fce293e7963499d5309a07cee84a269f2f15a6856040516121ca91906143d7565b60405180910390a35050505050505050565b60006067600083815260200190815260200160002060009054906101000a900473ffffffffffffffffffffffffffffffffffffffff169050919050565b600060c960009054906101000a900473ffffffffffffffffffffffffffffffffffffffff1690508160c960006101000a81548173ffffffffffffffffffffffffffffffffffffffff021916908373ffffffffffffffffffffffffffffffffffffffff1602179055508173ffffffffffffffffffffffffffffffffffffffff168173ffffffffffffffffffffffffffffffffffffffff167f8be0079c531659141344cd1fd0a4f28419497f9722a3daafe3b4186f6b6457e060405160405180910390a35050565b60603373ffffffffffffffffffffffffffffffffffffffff1661230183610fbb565b73ffffffffffffffffffffffffffffffffffffffff1614612357576040517f08c379a000000000000000000000000000000000000000000000000000000000815260040161234e90615443565b60405180910390fd5b600061236283611529565b905061236d83612d54565b600061016360003373ffffffffffffffffffffffffffffffffffffffff1673ffffffffffffffffffffffffffffffffffffffff168152602001908152602001600020905060005b818054905081101561241757848282815481106123d4576123d3614d2b565b5b90600052602060002001540361240a578181815481106123f7576123f6614d2b565b5b9060005260206000200160009055612417565b80806001019150506123b4565b508192505050919050565b6060838383604051602001612439939291906154ec565b60405160208183030381529060405290509392505050565b6000612480858561016260008963ffffffff1663ffffffff168152602001908152602001600020548686612da7565b9050949350505050565b600081600001549050919050565b6001816000016000828254019250508190555050565b6124c8828260405180602001604052806000815250612e52565b5050565b60606124d782612ead565b84846040516020016124eb939291906156a0565b60405160208183030381529060405290509392505050565b61250c82612a1c565b61254b576040517f08c379a000000000000000000000000000000000000000000000000000000000815260040161254290615764565b60405180910390fd5b80609760008481526020019081526020016000209080519060200190612572929190613ae5565b505050565b8173ffffffffffffffffffffffffffffffffffffffff168373ffffffffffffffffffffffffffffffffffffffff16036125e5576040517f08c379a00000000000000000000000000000000000000000000000000000000081526004016125dc906157d0565b60405180910390fd5b80606a60008573ffffffffffffffffffffffffffffffffffffffff1673ffffffffffffffffffffffffffffffffffffffff16815260200190815260200160002060008473ffffffffffffffffffffffffffffffffffffffff1673ffffffffffffffffffffffffffffffffffffffff16815260200190815260200160002060006101000a81548160ff0219169083151502179055508173ffffffffffffffffffffffffffffffffffffffff168373ffffffffffffffffffffffffffffffffffffffff167f17307eab39ab6107e8899845ad3d59bd9653f200f220920489ca2b5937696c31836040516126d69190613c7c565b60405180910390a3505050565b8061016260008463ffffffff1663ffffffff168152602001908152602001600020819055508163ffffffff167f90563f253ecb04527a6a7ae1a8cbe2bdc6caefb39d5f7b06a973cf5e7f8035a48260405161273e91906143d7565b60405180910390a25050565b6127678263ffffffff168261012e612f7b9092919063ffffffff16565b808263ffffffff167f97fd51fef1f80c854cbd0150c248e8b2ac4ecdc97cc05e742b5f61c9f4dc645860405160405180910390a35050565b6127aa848484611de8565b6127b684848484612f9c565b6127f5576040517f08c379a00000000000000000000000000000000000000000000000000000000081526004016127ec90615862565b60405180910390fd5b50505050565b606060405180602001604052806000815250905090565b606061281d826119de565b60006128276127fb565b905060008151116128475760405180602001604052806000815250612872565b8061285184613123565b604051602001612862929190614fcd565b6040516020818303038152906040525b915050919050565b8061288481612a5d565b6128c3576040517f08c379a00000000000000000000000000000000000000000000000000000000081526004016128ba90615221565b60405180910390fd5b8160fc60006101000a81548173ffffffffffffffffffffffffffffffffffffffff021916908373ffffffffffffffffffffffffffffffffffffffff1602179055508173ffffffffffffffffffffffffffffffffffffffff167fb87f5a0bface22cde699143559fb99f990ae54eea236995fc54178af91af859f60405160405180910390a25050565b8061295581612a5d565b612994576040517f08c379a000000000000000000000000000000000000000000000000000000000815260040161298b90615221565b60405180910390fd5b8160fb60006101000a81548173ffffffffffffffffffffffffffffffffffffffff021916908373ffffffffffffffffffffffffffffffffffffffff1602179055508173ffffffffffffffffffffffffffffffffffffffff167f7a61e573722ff8b205c8962b59d37e7d30573f368965597a844a94872204ebd760405160405180910390a25050565b60008073ffffffffffffffffffffffffffffffffffffffff16612a3e836121dc565b73ffffffffffffffffffffffffffffffffffffffff1614159050919050565b6000808273ffffffffffffffffffffffffffffffffffffffff163b119050919050565b600060019054906101000a900460ff16612acf576040517f08c379a0000000000000000000000000000000000000000000000000000000008152600401612ac6906152b3565b60405180910390fd5b612ad88161294b565b612ae06131f1565b50565b600060019054906101000a900460ff16612b32576040517f08c379a0000000000000000000000000000000000000000000000000000000008152600401612b29906152b3565b60405180910390fd5b8160659080519060200190612b48929190613ae5565b508060669080519060200190612b5f929190613ae5565b505050565b50505050565b50505050565b6000612b88828460000161324a90919063ffffffff16565b905092915050565b6000808360020160008481526020019081526020016000205490506000801b81141580612bc35750612bc28484612b70565b5b612c02576040517f08c379a0000000000000000000000000000000000000000000000000000000008152600401612bf9906158ce565b60405180910390fd5b8091505092915050565b60008282600090602092612c22939291906158f8565b90612c2d919061594b565b905092915050565b60008282602090604092612c4b939291906158f8565b90612c56919061594b565b60001c905092915050565b36600083836040908092612c77939291906158f8565b915091509250929050565b60008160001c9050919050565b612c9984846124ae565b612ce78383838080601f016020809104026020016040519081016040528093929190818152602001838380828437600081840152601f19601f82011690508083019250505050505050612503565b61016360008573ffffffffffffffffffffffffffffffffffffffff1673ffffffffffffffffffffffffffffffffffffffff16815260200190815260200160002083908060018154018082558091505060019003906000526020600020016000909190919091505550505050565b612d5d81613261565b6000609760008381526020019081526020016000208054612d7d90614a4f565b905014612da457609760008281526020019081526020016000206000612da39190613b6b565b5b50565b6000612db386866133af565b905060fc60009054906101000a900473ffffffffffffffffffffffffffffffffffffffff1673ffffffffffffffffffffffffffffffffffffffff166311bf2c1884838988876040518663ffffffff1660e01b8152600401612e1794939291906159aa565b6000604051808303818588803b158015612e3057600080fd5b505af1158015612e44573d6000803e3d6000fd5b505050505095945050505050565b612e5c8383613468565b612e696000848484612f9c565b612ea8576040517f08c379a0000000000000000000000000000000000000000000000000000000008152600401612e9f90615862565b60405180910390fd5b505050565b606060006001612ebc84613685565b01905060008167ffffffffffffffff811115612edb57612eda613eb4565b5b6040519080825280601f01601f191660200182016040528015612f0d5781602001600182028036833780820191505090505b509050600082602001820190505b600115612f70578080600190039150507f3031323334353637383961626364656600000000000000000000000000000000600a86061a8153600a8581612f6457612f636159ef565b5b04945060008503612f1b575b819350505050919050565b612f968260001b82856000016137d89092919063ffffffff16565b50505050565b6000612fbd8473ffffffffffffffffffffffffffffffffffffffff16611c6e565b15613116578373ffffffffffffffffffffffffffffffffffffffff1663150b7a02612fe6611a29565b8786866040518563ffffffff1660e01b81526004016130089493929190615a68565b6020604051808303816000875af192505050801561304457506040513d601f19601f820116820180604052508101906130419190615ac9565b60015b6130c6573d8060008114613074576040519150601f19603f3d011682016040523d82523d6000602084013e613079565b606091505b5060008151036130be576040517f08c379a00000000000000000000000000000000000000000000000000000000081526004016130b590615862565b60405180910390fd5b805181602001fd5b63150b7a0260e01b7bffffffffffffffffffffffffffffffffffffffffffffffffffffffff1916817bffffffffffffffffffffffffffffffffffffffffffffffffffffffff19161491505061311b565b600190505b949350505050565b60606000600161313284613813565b01905060008167ffffffffffffffff81111561315157613150613eb4565b5b6040519080825280601f01601f1916602001820160405280156131835781602001600182028036833780820191505090505b509050600082602001820190505b6001156131e6578080600190039150507f3031323334353637383961626364656600000000000000000000000000000000600a86061a8153600a85816131da576131d96159ef565b5b04945060008503613191575b819350505050919050565b600060019054906101000a900460ff16613240576040517f08c379a0000000000000000000000000000000000000000000000000000000008152600401613237906152b3565b60405180910390fd5b613248613966565b565b600061325983600001836139c7565b905092915050565b600061326c82610fbb565b905061327c816000846001612b64565b61328582610fbb565b90506069600083815260200190815260200160002060006101000a81549073ffffffffffffffffffffffffffffffffffffffff02191690556001606860008373ffffffffffffffffffffffffffffffffffffffff1673ffffffffffffffffffffffffffffffffffffffff168152602001908152602001600020600082825403925050819055506067600083815260200190815260200160002060006101000a81549073ffffffffffffffffffffffffffffffffffffffff021916905581600073ffffffffffffffffffffffffffffffffffffffff168273ffffffffffffffffffffffffffffffffffffffff167fddf252ad1be2c89b69c2b068fc378daa952ba7f163c4a11628f55a4df523b3ef60405160405180910390a46133ab816000846001612b6a565b5050565b6000806133bb846139ea565b905060fb60009054906101000a900473ffffffffffffffffffffffffffffffffffffffff1673ffffffffffffffffffffffffffffffffffffffff1663fa31de018583866040518463ffffffff1660e01b815260040161341c93929190615af6565b6020604051808303816000875af115801561343b573d6000803e3d6000fd5b505050506040513d601f19601f8201168201806040525081019061345f9190615b49565b91505092915050565b600073ffffffffffffffffffffffffffffffffffffffff168273ffffffffffffffffffffffffffffffffffffffff16036134d7576040517f08c379a00000000000000000000000000000000000000000000000000000000081526004016134ce90615bc2565b60405180910390fd5b6134e081612a1c565b15613520576040517f08c379a000000000000000000000000000000000000000000000000000000000815260040161351790615c2e565b60405180910390fd5b61352e600083836001612b64565b61353781612a1c565b15613577576040517f08c379a000000000000000000000000000000000000000000000000000000000815260040161356e90615c2e565b60405180910390fd5b6001606860008473ffffffffffffffffffffffffffffffffffffffff1673ffffffffffffffffffffffffffffffffffffffff16815260200190815260200160002060008282540192505081905550816067600083815260200190815260200160002060006101000a81548173ffffffffffffffffffffffffffffffffffffffff021916908373ffffffffffffffffffffffffffffffffffffffff160217905550808273ffffffffffffffffffffffffffffffffffffffff16600073ffffffffffffffffffffffffffffffffffffffff167fddf252ad1be2c89b69c2b068fc378daa952ba7f163c4a11628f55a4df523b3ef60405160405180910390a4613681600083836001612b6a565b5050565b600080600090507a184f03e93ff9f4daa797ed6e38ed64bf6a1f01000000000000000083106136e3577a184f03e93ff9f4daa797ed6e38ed64bf6a1f01000000000000000083816136d9576136d86159ef565b5b0492506040810190505b6d04ee2d6d415b85acef81000000008310613720576d04ee2d6d415b85acef81000000008381613716576137156159ef565b5b0492506020810190505b662386f26fc10000831061374f57662386f26fc100008381613745576137446159ef565b5b0492506010810190505b6305f5e1008310613778576305f5e100838161376e5761376d6159ef565b5b0492506008810190505b612710831061379d576127108381613793576137926159ef565b5b0492506004810190505b606483106137c057606483816137b6576137b56159ef565b5b0492506002810190505b600a83106137cf576001810190505b80915050919050565b6000818460020160008581526020019081526020016000208190555061380a8385600001613a5e90919063ffffffff16565b90509392505050565b600080600090507a184f03e93ff9f4daa797ed6e38ed64bf6a1f0100000000000000008310613871577a184f03e93ff9f4daa797ed6e38ed64bf6a1f0100000000000000008381613867576138666159ef565b5b0492506040810190505b6d04ee2d6d415b85acef810000000083106138ae576d04ee2d6d415b85acef810000000083816138a4576138a36159ef565b5b0492506020810190505b662386f26fc1000083106138dd57662386f26fc1000083816138d3576138d26159ef565b5b0492506010810190505b6305f5e1008310613906576305f5e10083816138fc576138fb6159ef565b5b0492506008810190505b612710831061392b576127108381613921576139206159ef565b5b0492506004810190505b6064831061394e5760648381613944576139436159ef565b5b0492506002810190505b600a831061395d576001810190505b80915050919050565b600060019054906101000a900460ff166139b5576040517f08c379a00000000000000000000000000000000000000000000000000000000081526004016139ac906152b3565b60405180910390fd5b6139c56139c0611a29565b612219565b565b600080836001016000848152602001908152602001600020541415905092915050565b60006139f582610d3f565b90506000801b811415604051806080016040528060438152602001615c4f6043913990613a58576040517f08c379a0000000000000000000000000000000000000000000000000000000008152600401613a4f9190613d30565b60405180910390fd5b50919050565b6000613a6d8360000183613a75565b905092915050565b6000613a8183836139c7565b613ada578260000182908060018154018082558091505060019003906000526020600020016000909190919091505582600001805490508360010160008481526020019081526020016000208190555060019050613adf565b600090505b92915050565b828054613af190614a4f565b90600052602060002090601f016020900481019282613b135760008555613b5a565b82601f10613b2c57805160ff1916838001178555613b5a565b82800160010185558215613b5a579182015b82811115613b59578251825591602001919060010190613b3e565b5b509050613b679190613bab565b5090565b508054613b7790614a4f565b6000825580601f10613b895750613ba8565b601f016020900490600052602060002090810190613ba79190613bab565b5b50565b5b80821115613bc4576000816000905550600101613bac565b5090565b6000604051905090565b600080fd5b600080fd5b60007fffffffff0000000000000000000000000000000000000000000000000000000082169050919050565b613c1181613bdc565b8114613c1c57600080fd5b50565b600081359050613c2e81613c08565b92915050565b600060208284031215613c4a57613c49613bd2565b5b6000613c5884828501613c1f565b91505092915050565b60008115159050919050565b613c7681613c61565b82525050565b6000602082019050613c916000830184613c6d565b92915050565b600081519050919050565b600082825260208201905092915050565b60005b83811015613cd1578082015181840152602081019050613cb6565b83811115613ce0576000848401525b50505050565b6000601f19601f8301169050919050565b6000613d0282613c97565b613d0c8185613ca2565b9350613d1c818560208601613cb3565b613d2581613ce6565b840191505092915050565b60006020820190508181036000830152613d4a8184613cf7565b905092915050565b6000819050919050565b613d6581613d52565b8114613d7057600080fd5b50565b600081359050613d8281613d5c565b92915050565b600060208284031215613d9e57613d9d613bd2565b5b6000613dac84828501613d73565b91505092915050565b600073ffffffffffffffffffffffffffffffffffffffff82169050919050565b6000613de082613db5565b9050919050565b613df081613dd5565b82525050565b6000602082019050613e0b6000830184613de7565b92915050565b613e1a81613dd5565b8114613e2557600080fd5b50565b600081359050613e3781613e11565b92915050565b60008060408385031215613e5457613e53613bd2565b5b6000613e6285828601613e28565b9250506020613e7385828601613d73565b9150509250929050565b600060208284031215613e9357613e92613bd2565b5b6000613ea184828501613e28565b91505092915050565b600080fd5b600080fd5b7f4e487b7100000000000000000000000000000000000000000000000000000000600052604160045260246000fd5b613eec82613ce6565b810181811067ffffffffffffffff82111715613f0b57613f0a613eb4565b5b80604052505050565b6000613f1e613bc8565b9050613f2a8282613ee3565b919050565b600067ffffffffffffffff821115613f4a57613f49613eb4565b5b613f5382613ce6565b9050602081019050919050565b82818337600083830152505050565b6000613f82613f7d84613f2f565b613f14565b905082815260208101848484011115613f9e57613f9d613eaf565b5b613fa9848285613f60565b509392505050565b600082601f830112613fc657613fc5613eaa565b5b8135613fd6848260208601613f6f565b91505092915050565b60008060008060808587031215613ff957613ff8613bd2565b5b600061400787828801613e28565b945050602061401887828801613e28565b935050604085013567ffffffffffffffff81111561403957614038613bd7565b5b61404587828801613fb1565b925050606085013567ffffffffffffffff81111561406657614065613bd7565b5b61407287828801613fb1565b91505092959194509250565b60008060006060848603121561409757614096613bd2565b5b60006140a586828701613e28565b93505060206140b686828701613e28565b92505060406140c786828701613d73565b9150509250925092565b600063ffffffff82169050919050565b6140ea816140d1565b81146140f557600080fd5b50565b600081359050614107816140e1565b92915050565b60006020828403121561412357614122613bd2565b5b6000614131848285016140f8565b91505092915050565b6000819050919050565b61414d8161413a565b82525050565b60006020820190506141686000830184614144565b92915050565b6000819050919050565b600061419361418e61418984613db5565b61416e565b613db5565b9050919050565b60006141a582614178565b9050919050565b60006141b78261419a565b9050919050565b6141c7816141ac565b82525050565b60006020820190506141e260008301846141be565b92915050565b600081519050919050565b600082825260208201905092915050565b6000819050602082019050919050565b61421d816140d1565b82525050565b600061422f8383614214565b60208301905092915050565b6000602082019050919050565b6000614253826141e8565b61425d81856141f3565b935061426883614204565b8060005b838110156142995781516142808882614223565b975061428b8361423b565b92505060018101905061426c565b5085935050505092915050565b600060208201905081810360008301526142c08184614248565b905092915050565b6142d18161413a565b81146142dc57600080fd5b50565b6000813590506142ee816142c8565b92915050565b600080fd5b600080fd5b60008083601f84011261431457614313613eaa565b5b8235905067ffffffffffffffff811115614331576143306142f4565b5b60208301915083600182028301111561434d5761434c6142f9565b5b9250929050565b6000806000806060858703121561436e5761436d613bd2565b5b600061437c878288016140f8565b945050602061438d878288016142df565b935050604085013567ffffffffffffffff8111156143ae576143ad613bd7565b5b6143ba878288016142fe565b925092505092959194509250565b6143d181613d52565b82525050565b60006020820190506143ec60008301846143c8565b92915050565b600081519050919050565b600082825260208201905092915050565b6000819050602082019050919050565b61442781613d52565b82525050565b6000614439838361441e565b60208301905092915050565b6000602082019050919050565b600061445d826143f2565b61446781856143fd565b93506144728361440e565b8060005b838110156144a357815161448a888261442d565b975061449583614445565b925050600181019050614476565b5085935050505092915050565b600060208201905081810360008301526144ca8184614452565b905092915050565b6000806000606084860312156144eb576144ea613bd2565b5b60006144f9868287016140f8565b935050602061450a868287016142df565b925050604061451b86828701613d73565b9150509250925092565b60008083601f84011261453b5761453a613eaa565b5b8235905067ffffffffffffffff811115614558576145576142f4565b5b602083019150836001820283011115614574576145736142f9565b5b9250929050565b6000806020838503121561459257614591613bd2565b5b600083013567ffffffffffffffff8111156145b0576145af613bd7565b5b6145bc85828601614525565b92509250509250929050565b6145d181613c61565b81146145dc57600080fd5b50565b6000813590506145ee816145c8565b92915050565b6000806040838503121561460b5761460a613bd2565b5b600061461985828601613e28565b925050602061462a858286016145df565b9150509250929050565b60008083601f84011261464a57614649613eaa565b5b8235905067ffffffffffffffff811115614667576146666142f4565b5b602083019150836040820283011115614683576146826142f9565b5b9250929050565b600080602083850312156146a1576146a0613bd2565b5b600083013567ffffffffffffffff8111156146bf576146be613bd7565b5b6146cb85828601614634565b92509250509250929050565b600080604083850312156146ee576146ed613bd2565b5b60006146fc858286016140f8565b925050602061470d858286016142df565b9150509250929050565b600067ffffffffffffffff82111561473257614731613eb4565b5b61473b82613ce6565b9050602081019050919050565b600061475b61475684614717565b613f14565b90508281526020810184848401111561477757614776613eaf565b5b614782848285613f60565b509392505050565b600082601f83011261479f5761479e613eaa565b5b81356147af848260208601614748565b91505092915050565b600080600080608085870312156147d2576147d1613bd2565b5b60006147e087828801613e28565b94505060206147f187828801613e28565b935050604061480287828801613d73565b925050606085013567ffffffffffffffff81111561482357614822613bd7565b5b61482f8782880161478a565b91505092959194509250565b60006148468261419a565b9050919050565b6148568161483b565b82525050565b6000602082019050614871600083018461484d565b92915050565b60006148828261419a565b9050919050565b61489281614877565b82525050565b60006020820190506148ad6000830184614889565b92915050565b60008083601f8401126148c9576148c8613eaa565b5b8235905067ffffffffffffffff8111156148e6576148e56142f4565b5b602083019150836020820283011115614902576149016142f9565b5b9250929050565b60008083601f84011261491f5761491e613eaa565b5b8235905067ffffffffffffffff81111561493c5761493b6142f4565b5b602083019150836020820283011115614958576149576142f9565b5b9250929050565b6000806000806040858703121561497957614978613bd2565b5b600085013567ffffffffffffffff81111561499757614996613bd7565b5b6149a3878288016148b3565b9450945050602085013567ffffffffffffffff8111156149c6576149c5613bd7565b5b6149d287828801614909565b925092505092959194509250565b600080604083850312156149f7576149f6613bd2565b5b6000614a0585828601613e28565b9250506020614a1685828601613e28565b9150509250929050565b7f4e487b7100000000000000000000000000000000000000000000000000000000600052602260045260246000fd5b60006002820490506001821680614a6757607f821691505b602082108103614a7a57614a79614a20565b5b50919050565b7f4552433732313a20617070726f76616c20746f2063757272656e74206f776e6560008201527f7200000000000000000000000000000000000000000000000000000000000000602082015250565b6000614adc602183613ca2565b9150614ae782614a80565b604082019050919050565b60006020820190508181036000830152614b0b81614acf565b9050919050565b7f4552433732313a20617070726f76652063616c6c6572206973206e6f7420746f60008201527f6b656e206f776e6572206f7220617070726f76656420666f7220616c6c000000602082015250565b6000614b6e603d83613ca2565b9150614b7982614b12565b604082019050919050565b60006020820190508181036000830152614b9d81614b61565b9050919050565b7f496e697469616c697a61626c653a20636f6e747261637420697320616c72656160008201527f647920696e697469616c697a6564000000000000000000000000000000000000602082015250565b6000614c00602e83613ca2565b9150614c0b82614ba4565b604082019050919050565b60006020820190508181036000830152614c2f81614bf3565b9050919050565b6000819050919050565b600060ff82169050919050565b6000614c68614c63614c5e84614c36565b61416e565b614c40565b9050919050565b614c7881614c4d565b82525050565b6000602082019050614c936000830184614c6f565b92915050565b7f4552433732313a2063616c6c6572206973206e6f7420746f6b656e206f776e6560008201527f72206f7220617070726f76656400000000000000000000000000000000000000602082015250565b6000614cf5602d83613ca2565b9150614d0082614c99565b604082019050919050565b60006020820190508181036000830152614d2481614ce8565b9050919050565b7f4e487b7100000000000000000000000000000000000000000000000000000000600052603260045260246000fd5b7f4e487b7100000000000000000000000000000000000000000000000000000000600052601160045260246000fd5b6000614d9482613d52565b91507fffffffffffffffffffffffffffffffffffffffffffffffffffffffffffffffff8203614dc657614dc5614d5a565b5b600182019050919050565b7f216d61696c626f78000000000000000000000000000000000000000000000000600082015250565b6000614e07600883613ca2565b9150614e1282614dd1565b602082019050919050565b60006020820190508181036000830152614e3681614dfa565b9050919050565b7f4552433732313a20696e76616c696420746f6b656e2049440000000000000000600082015250565b6000614e73601883613ca2565b9150614e7e82614e3d565b602082019050919050565b60006020820190508181036000830152614ea281614e66565b9050919050565b7f4552433732313a2061646472657373207a65726f206973206e6f74206120766160008201527f6c6964206f776e65720000000000000000000000000000000000000000000000602082015250565b6000614f05602983613ca2565b9150614f1082614ea9565b604082019050919050565b60006020820190508181036000830152614f3481614ef8565b9050919050565b6000614f4682613d52565b9150614f5183613d52565b9250827fffffffffffffffffffffffffffffffffffffffffffffffffffffffffffffffff03821115614f8657614f85614d5a565b5b828201905092915050565b600081905092915050565b6000614fa782613c97565b614fb18185614f91565b9350614fc1818560208601613cb3565b80840191505092915050565b6000614fd98285614f9c565b9150614fe58284614f9c565b91508190509392505050565b7f216c656e67746800000000000000000000000000000000000000000000000000600082015250565b6000615027600783613ca2565b915061503282614ff1565b602082019050919050565b600060208201905081810360008301526150568161501a565b9050919050565b615066816140d1565b82525050565b6000604082019050615081600083018561505d565b61508e60208301846143c8565b9392505050565b6000815190506150a481613d5c565b92915050565b6000602082840312156150c0576150bf613bd2565b5b60006150ce84828501615095565b91505092915050565b7f4f776e61626c653a206e6577206f776e657220697320746865207a65726f206160008201527f6464726573730000000000000000000000000000000000000000000000000000602082015250565b6000615133602683613ca2565b915061513e826150d7565b604082019050919050565b6000602082019050818103600083015261516281615126565b9050919050565b7f4f776e61626c653a2063616c6c6572206973206e6f7420746865206f776e6572600082015250565b600061519f602083613ca2565b91506151aa82615169565b602082019050919050565b600060208201905081810360008301526151ce81615192565b9050919050565b7f21636f6e74726163740000000000000000000000000000000000000000000000600082015250565b600061520b600983613ca2565b9150615216826151d5565b602082019050919050565b6000602082019050818103600083015261523a816151fe565b9050919050565b7f496e697469616c697a61626c653a20636f6e7472616374206973206e6f74206960008201527f6e697469616c697a696e67000000000000000000000000000000000000000000602082015250565b600061529d602b83613ca2565b91506152a882615241565b604082019050919050565b600060208201905081810360008301526152cc81615290565b9050919050565b7f4552433732313a207472616e736665722066726f6d20696e636f72726563742060008201527f6f776e6572000000000000000000000000000000000000000000000000000000602082015250565b600061532f602583613ca2565b915061533a826152d3565b604082019050919050565b6000602082019050818103600083015261535e81615322565b9050919050565b7f4552433732313a207472616e7366657220746f20746865207a65726f2061646460008201527f7265737300000000000000000000000000000000000000000000000000000000602082015250565b60006153c1602483613ca2565b91506153cc82615365565b604082019050919050565b600060208201905081810360008301526153f0816153b4565b9050919050565b7f216f776e65720000000000000000000000000000000000000000000000000000600082015250565b600061542d600683613ca2565b9150615438826153f7565b602082019050919050565b6000602082019050818103600083015261545c81615420565b9050919050565b6000819050919050565b61547e6154798261413a565b615463565b82525050565b6000819050919050565b61549f61549a82613d52565b615484565b82525050565b600081519050919050565b600081905092915050565b60006154c6826154a5565b6154d081856154b0565b93506154e0818560208601613cb3565b80840191505092915050565b60006154f8828661546d565b602082019150615508828561548e565b60208201915061551882846154bb565b9150819050949350505050565b7f7b226e616d65223a202261636323000000000000000000000000000000000000600082015250565b600061555b600e83614f91565b915061556682615525565b600e82019050919050565b7f222c226465736372697074696f6e223a2022417765736f6d652063726f73732060008201527f636861696e204e465473222c0000000000000000000000000000000000000000602082015250565b60006155cd602c83614f91565b91506155d882615571565b602c82019050919050565b7f22696d616765223a220000000000000000000000000000000000000000000000600082015250565b6000615619600983614f91565b9150615624826155e3565b600982019050919050565b600061563b8385614f91565b9350615648838584613f60565b82840190509392505050565b7f7d00000000000000000000000000000000000000000000000000000000000000600082015250565b600061568a600183614f91565b915061569582615654565b600182019050919050565b60006156ab8261554e565b91506156b78286614f9c565b91506156c2826155c0565b91506156cd8261560c565b91506156da82848661562f565b91506156e58261567d565b9150819050949350505050565b7f45524337323155524953746f726167653a2055524920736574206f66206e6f6e60008201527f6578697374656e7420746f6b656e000000000000000000000000000000000000602082015250565b600061574e602e83613ca2565b9150615759826156f2565b604082019050919050565b6000602082019050818103600083015261577d81615741565b9050919050565b7f4552433732313a20617070726f766520746f2063616c6c657200000000000000600082015250565b60006157ba601983613ca2565b91506157c582615784565b602082019050919050565b600060208201905081810360008301526157e9816157ad565b9050919050565b7f4552433732313a207472616e7366657220746f206e6f6e20455243373231526560008201527f63656976657220696d706c656d656e7465720000000000000000000000000000602082015250565b600061584c603283613ca2565b9150615857826157f0565b604082019050919050565b6000602082019050818103600083015261587b8161583f565b9050919050565b7f456e756d657261626c654d61703a206e6f6e6578697374656e74206b65790000600082015250565b60006158b8601e83613ca2565b91506158c382615882565b602082019050919050565b600060208201905081810360008301526158e7816158ab565b9050919050565b600080fd5b600080fd5b6000808585111561590c5761590b6158ee565b5b8386111561591d5761591c6158f3565b5b6001850283019150848603905094509492505050565b600082905092915050565b600082821b905092915050565b60006159578383615933565b82615962813561413a565b925060208210156159a25761599d7fffffffffffffffffffffffffffffffffffffffffffffffffffffffffffffffff8360200360080261593e565b831692505b505092915050565b60006080820190506159bf6000830187614144565b6159cc602083018661505d565b6159d960408301856143c8565b6159e66060830184613de7565b95945050505050565b7f4e487b7100000000000000000000000000000000000000000000000000000000600052601260045260246000fd5b600082825260208201905092915050565b6000615a3a826154a5565b615a448185615a1e565b9350615a54818560208601613cb3565b615a5d81613ce6565b840191505092915050565b6000608082019050615a7d6000830187613de7565b615a8a6020830186613de7565b615a9760408301856143c8565b8181036060830152615aa98184615a2f565b905095945050505050565b600081519050615ac381613c08565b92915050565b600060208284031215615adf57615ade613bd2565b5b6000615aed84828501615ab4565b91505092915050565b6000606082019050615b0b600083018661505d565b615b186020830185614144565b8181036040830152615b2a8184615a2f565b9050949350505050565b600081519050615b43816142c8565b92915050565b600060208284031215615b5f57615b5e613bd2565b5b6000615b6d84828501615b34565b91505092915050565b7f4552433732313a206d696e7420746f20746865207a65726f2061646472657373600082015250565b6000615bac602083613ca2565b9150615bb782615b76565b602082019050919050565b60006020820190508181036000830152615bdb81615b9f565b9050919050565b7f4552433732313a20746f6b656e20616c7265616479206d696e74656400000000600082015250565b6000615c18601c83613ca2565b9150615c2382615be2565b602082019050919050565b60006020820190508181036000830152615c4781615c0b565b905091905056fe4e6f20726f7574657220656e726f6c6c656420666f7220646f6d61696e2e2044696420796f7520737065636966792074686520726967687420646f6d61696e2049443fa26469706673582212206281f243e274f75a6f8f1e5b37d09b3c8cc97d149c2860de25a8b7fc6606792664736f6c634300080d0033",
  "linkReferences": {},
  "deployedLinkReferences": {}
}