{
  "_format": "hh-sol-artifact-1",
  "contractName": "AwesomeCrossChainNFT",
  "sourceName": "contracts/AwesomeCrossChainNFT.sol",
  "abi": [
    {
      "inputs": [
        {
          "internalType": "uint256",
          "name": "originMintPrice",
          "type": "uint256"
        },
        {
          "internalType": "uint256",
          "name": "originChainId",
          "type": "uint256"
        }
      ],
      "stateMutability": "nonpayable",
      "type": "constructor"
    },
    {
      "inputs": [],
      "name": "NotEnoughToken",
      "type": "error"
    },
    {
      "anonymous": false,
      "inputs": [
        {
          "indexed": true,
          "internalType": "address",
          "name": "owner",
          "type": "address"
        },
        {
          "indexed": true,
          "internalType": "address",
          "name": "approved",
          "type": "address"
        },
        {
          "indexed": true,
          "internalType": "uint256",
          "name": "tokenId",
          "type": "uint256"
        }
      ],
      "name": "Approval",
      "type": "event"
    },
    {
      "anonymous": false,
      "inputs": [
        {
          "indexed": true,
          "internalType": "address",
          "name": "owner",
          "type": "address"
        },
        {
          "indexed": true,
          "internalType": "address",
          "name": "operator",
          "type": "address"
        },
        {
          "indexed": false,
          "internalType": "bool",
          "name": "approved",
          "type": "bool"
        }
      ],
      "name": "ApprovalForAll",
      "type": "event"
    },
    {
      "anonymous": false,
      "inputs": [
        {
          "indexed": true,
          "internalType": "uint32",
          "name": "domain",
          "type": "uint32"
        },
        {
          "indexed": false,
          "internalType": "uint256",
          "name": "gas",
          "type": "uint256"
        }
      ],
      "name": "DestinationGasSet",
      "type": "event"
    },
    {
      "anonymous": false,
      "inputs": [
        {
          "indexed": false,
          "internalType": "uint8",
          "name": "version",
          "type": "uint8"
        }
      ],
      "name": "Initialized",
      "type": "event"
    },
    {
      "anonymous": false,
      "inputs": [
        {
          "indexed": true,
          "internalType": "address",
          "name": "interchainGasPaymaster",
          "type": "address"
        }
      ],
      "name": "InterchainGasPaymasterSet",
      "type": "event"
    },
    {
      "anonymous": false,
      "inputs": [
        {
          "indexed": true,
          "internalType": "address",
          "name": "module",
          "type": "address"
        }
      ],
      "name": "InterchainSecurityModuleSet",
      "type": "event"
    },
    {
      "anonymous": false,
      "inputs": [
        {
          "indexed": true,
          "internalType": "address",
          "name": "mailbox",
          "type": "address"
        }
      ],
      "name": "MailboxSet",
      "type": "event"
    },
    {
      "anonymous": false,
      "inputs": [
        {
          "indexed": true,
          "internalType": "address",
          "name": "previousOwner",
          "type": "address"
        },
        {
          "indexed": true,
          "internalType": "address",
          "name": "newOwner",
          "type": "address"
        }
      ],
      "name": "OwnershipTransferred",
      "type": "event"
    },
    {
      "anonymous": false,
      "inputs": [
        {
          "indexed": true,
          "internalType": "uint32",
          "name": "origin",
          "type": "uint32"
        },
        {
          "indexed": true,
          "internalType": "bytes32",
          "name": "recipient",
          "type": "bytes32"
        },
        {
          "indexed": false,
          "internalType": "uint256",
          "name": "amount",
          "type": "uint256"
        }
      ],
      "name": "ReceivedTransferRemote",
      "type": "event"
    },
    {
      "anonymous": false,
      "inputs": [
        {
          "indexed": true,
          "internalType": "uint32",
          "name": "domain",
          "type": "uint32"
        },
        {
          "indexed": true,
          "internalType": "bytes32",
          "name": "router",
          "type": "bytes32"
        }
      ],
      "name": "RemoteRouterEnrolled",
      "type": "event"
    },
    {
      "anonymous": false,
      "inputs": [
        {
          "indexed": true,
          "internalType": "uint32",
          "name": "destination",
          "type": "uint32"
        },
        {
          "indexed": true,
          "internalType": "bytes32",
          "name": "recipient",
          "type": "bytes32"
        },
        {
          "indexed": false,
          "internalType": "uint256",
          "name": "amount",
          "type": "uint256"
        }
      ],
      "name": "SentTransferRemote",
      "type": "event"
    },
    {
      "anonymous": false,
      "inputs": [
        {
          "indexed": true,
          "internalType": "address",
          "name": "from",
          "type": "address"
        },
        {
          "indexed": true,
          "internalType": "address",
          "name": "to",
          "type": "address"
        },
        {
          "indexed": true,
          "internalType": "uint256",
          "name": "tokenId",
          "type": "uint256"
        }
      ],
      "name": "Transfer",
      "type": "event"
    },
    {
      "inputs": [
        {
          "internalType": "address",
          "name": "",
          "type": "address"
        },
        {
          "internalType": "uint256",
          "name": "",
          "type": "uint256"
        }
      ],
      "name": "OwnTokenList",
      "outputs": [
        {
          "internalType": "uint256",
          "name": "",
          "type": "uint256"
        }
      ],
      "stateMutability": "view",
      "type": "function"
    },
    {
      "inputs": [],
      "name": "_originMintPrice",
      "outputs": [
        {
          "internalType": "uint256",
          "name": "",
          "type": "uint256"
        }
      ],
      "stateMutability": "view",
      "type": "function"
    },
    {
      "inputs": [
        {
          "internalType": "address",
          "name": "to",
          "type": "address"
        },
        {
          "internalType": "uint256",
          "name": "tokenId",
          "type": "uint256"
        }
      ],
      "name": "approve",
      "outputs": [],
      "stateMutability": "nonpayable",
      "type": "function"
    },
    {
      "inputs": [
        {
          "internalType": "address",
          "name": "owner",
          "type": "address"
        }
      ],
      "name": "balanceOf",
      "outputs": [
        {
          "internalType": "uint256",
          "name": "",
          "type": "uint256"
        }
      ],
      "stateMutability": "view",
      "type": "function"
    },
    {
      "inputs": [
        {
          "internalType": "uint32",
          "name": "",
          "type": "uint32"
        }
      ],
      "name": "destinationGas",
      "outputs": [
        {
          "internalType": "uint256",
          "name": "",
          "type": "uint256"
        }
      ],
      "stateMutability": "view",
      "type": "function"
    },
    {
      "inputs": [],
      "name": "domains",
      "outputs": [
        {
          "internalType": "uint32[]",
          "name": "",
          "type": "uint32[]"
        }
      ],
      "stateMutability": "view",
      "type": "function"
    },
    {
      "inputs": [
        {
          "internalType": "uint32",
          "name": "_domain",
          "type": "uint32"
        },
        {
          "internalType": "bytes32",
          "name": "_router",
          "type": "bytes32"
        }
      ],
      "name": "enrollRemoteRouter",
      "outputs": [],
      "stateMutability": "nonpayable",
      "type": "function"
    },
    {
      "inputs": [
        {
          "internalType": "uint32[]",
          "name": "_domains",
          "type": "uint32[]"
        },
        {
          "internalType": "bytes32[]",
          "name": "_addresses",
          "type": "bytes32[]"
        }
      ],
      "name": "enrollRemoteRouters",
      "outputs": [],
      "stateMutability": "nonpayable",
      "type": "function"
    },
    {
      "inputs": [
        {
          "internalType": "uint256",
          "name": "tokenId",
          "type": "uint256"
        }
      ],
      "name": "getApproved",
      "outputs": [
        {
          "internalType": "address",
          "name": "",
          "type": "address"
        }
      ],
      "stateMutability": "view",
      "type": "function"
    },
    {
      "inputs": [
        {
          "internalType": "address",
          "name": "key",
          "type": "address"
        }
      ],
      "name": "getTokenListArray",
      "outputs": [
        {
          "internalType": "uint256[]",
          "name": "",
          "type": "uint256[]"
        }
      ],
      "stateMutability": "view",
      "type": "function"
    },
    {
      "inputs": [
        {
          "internalType": "uint32",
          "name": "_origin",
          "type": "uint32"
        },
        {
          "internalType": "bytes32",
          "name": "_sender",
          "type": "bytes32"
        },
        {
          "internalType": "bytes",
          "name": "_message",
          "type": "bytes"
        }
      ],
      "name": "handle",
      "outputs": [],
      "stateMutability": "nonpayable",
      "type": "function"
    },
    {
      "inputs": [
        {
          "internalType": "address",
          "name": "_mailbox",
          "type": "address"
        },
        {
          "internalType": "address",
          "name": "_interchainGasPaymaster",
          "type": "address"
        },
        {
          "internalType": "string",
          "name": "_name",
          "type": "string"
        },
        {
          "internalType": "string",
          "name": "_symbol",
          "type": "string"
        }
      ],
      "name": "initialize",
      "outputs": [],
      "stateMutability": "nonpayable",
      "type": "function"
    },
    {
      "inputs": [],
      "name": "interchainGasPaymaster",
      "outputs": [
        {
          "internalType": "contract IInterchainGasPaymaster",
          "name": "",
          "type": "address"
        }
      ],
      "stateMutability": "view",
      "type": "function"
    },
    {
      "inputs": [],
      "name": "interchainSecurityModule",
      "outputs": [
        {
          "internalType": "contract IInterchainSecurityModule",
          "name": "",
          "type": "address"
        }
      ],
      "stateMutability": "view",
      "type": "function"
    },
    {
      "inputs": [
        {
          "internalType": "address",
          "name": "owner",
          "type": "address"
        },
        {
          "internalType": "address",
          "name": "operator",
          "type": "address"
        }
      ],
      "name": "isApprovedForAll",
      "outputs": [
        {
          "internalType": "bool",
          "name": "",
          "type": "bool"
        }
      ],
      "stateMutability": "view",
      "type": "function"
    },
    {
      "inputs": [],
      "name": "mailbox",
      "outputs": [
        {
          "internalType": "contract IMailbox",
          "name": "",
          "type": "address"
        }
      ],
      "stateMutability": "view",
      "type": "function"
    },
    {
      "inputs": [],
      "name": "name",
      "outputs": [
        {
          "internalType": "string",
          "name": "",
          "type": "string"
        }
      ],
      "stateMutability": "view",
      "type": "function"
    },
    {
      "inputs": [
        {
          "internalType": "string",
          "name": "cid",
          "type": "string"
        },
        {
          "internalType": "string",
          "name": "config",
          "type": "string"
        }
      ],
      "name": "originMint",
      "outputs": [],
      "stateMutability": "payable",
      "type": "function"
    },
    {
      "inputs": [],
      "name": "owner",
      "outputs": [
        {
          "internalType": "address",
          "name": "",
          "type": "address"
        }
      ],
      "stateMutability": "view",
      "type": "function"
    },
    {
      "inputs": [
        {
          "internalType": "uint256",
          "name": "tokenId",
          "type": "uint256"
        }
      ],
      "name": "ownerOf",
      "outputs": [
        {
          "internalType": "address",
          "name": "",
          "type": "address"
        }
      ],
      "stateMutability": "view",
      "type": "function"
    },
    {
      "inputs": [
        {
          "internalType": "uint32",
          "name": "_destinationDomain",
          "type": "uint32"
        }
      ],
      "name": "quoteGasPayment",
      "outputs": [
        {
          "internalType": "uint256",
          "name": "_gasPayment",
          "type": "uint256"
        }
      ],
      "stateMutability": "view",
      "type": "function"
    },
    {
      "inputs": [],
      "name": "renounceOwnership",
      "outputs": [],
      "stateMutability": "nonpayable",
      "type": "function"
    },
    {
      "inputs": [
        {
          "internalType": "uint32",
          "name": "_domain",
          "type": "uint32"
        }
      ],
      "name": "routers",
      "outputs": [
        {
          "internalType": "bytes32",
          "name": "",
          "type": "bytes32"
        }
      ],
      "stateMutability": "view",
      "type": "function"
    },
    {
      "inputs": [
        {
          "internalType": "address",
          "name": "from",
          "type": "address"
        },
        {
          "internalType": "address",
          "name": "to",
          "type": "address"
        },
        {
          "internalType": "uint256",
          "name": "tokenId",
          "type": "uint256"
        }
      ],
      "name": "safeTransferFrom",
      "outputs": [],
      "stateMutability": "nonpayable",
      "type": "function"
    },
    {
      "inputs": [
        {
          "internalType": "address",
          "name": "from",
          "type": "address"
        },
        {
          "internalType": "address",
          "name": "to",
          "type": "address"
        },
        {
          "internalType": "uint256",
          "name": "tokenId",
          "type": "uint256"
        },
        {
          "internalType": "bytes",
          "name": "data",
          "type": "bytes"
        }
      ],
      "name": "safeTransferFrom",
      "outputs": [],
      "stateMutability": "nonpayable",
      "type": "function"
    },
    {
      "inputs": [
        {
          "internalType": "address",
          "name": "operator",
          "type": "address"
        },
        {
          "internalType": "bool",
          "name": "approved",
          "type": "bool"
        }
      ],
      "name": "setApprovalForAll",
      "outputs": [],
      "stateMutability": "nonpayable",
      "type": "function"
    },
    {
      "inputs": [
        {
          "components": [
            {
              "internalType": "uint32",
              "name": "domain",
              "type": "uint32"
            },
            {
              "internalType": "uint256",
              "name": "gas",
              "type": "uint256"
            }
          ],
          "internalType": "struct GasRouter.GasRouterConfig[]",
          "name": "gasConfigs",
          "type": "tuple[]"
        }
      ],
      "name": "setDestinationGas",
      "outputs": [],
      "stateMutability": "nonpayable",
      "type": "function"
    },
    {
      "inputs": [
        {
          "internalType": "address",
          "name": "_interchainGasPaymaster",
          "type": "address"
        }
      ],
      "name": "setInterchainGasPaymaster",
      "outputs": [],
      "stateMutability": "nonpayable",
      "type": "function"
    },
    {
      "inputs": [
        {
          "internalType": "address",
          "name": "_module",
          "type": "address"
        }
      ],
      "name": "setInterchainSecurityModule",
      "outputs": [],
      "stateMutability": "nonpayable",
      "type": "function"
    },
    {
      "inputs": [
        {
          "internalType": "address",
          "name": "_mailbox",
          "type": "address"
        }
      ],
      "name": "setMailbox",
      "outputs": [],
      "stateMutability": "nonpayable",
      "type": "function"
    },
    {
      "inputs": [
        {
          "internalType": "bytes4",
          "name": "interfaceId",
          "type": "bytes4"
        }
      ],
      "name": "supportsInterface",
      "outputs": [
        {
          "internalType": "bool",
          "name": "",
          "type": "bool"
        }
      ],
      "stateMutability": "view",
      "type": "function"
    },
    {
      "inputs": [],
      "name": "symbol",
      "outputs": [
        {
          "internalType": "string",
          "name": "",
          "type": "string"
        }
      ],
      "stateMutability": "view",
      "type": "function"
    },
    {
      "inputs": [
        {
          "internalType": "uint256",
          "name": "tokenId",
          "type": "uint256"
        }
      ],
      "name": "tokenURI",
      "outputs": [
        {
          "internalType": "string",
          "name": "",
          "type": "string"
        }
      ],
      "stateMutability": "view",
      "type": "function"
    },
    {
      "inputs": [
        {
          "internalType": "address",
          "name": "from",
          "type": "address"
        },
        {
          "internalType": "address",
          "name": "to",
          "type": "address"
        },
        {
          "internalType": "uint256",
          "name": "tokenId",
          "type": "uint256"
        }
      ],
      "name": "transferFrom",
      "outputs": [],
      "stateMutability": "nonpayable",
      "type": "function"
    },
    {
      "inputs": [
        {
          "internalType": "address",
          "name": "newOwner",
          "type": "address"
        }
      ],
      "name": "transferOwnership",
      "outputs": [],
      "stateMutability": "nonpayable",
      "type": "function"
    },
    {
      "inputs": [
        {
          "internalType": "uint32",
          "name": "_destination",
          "type": "uint32"
        },
        {
          "internalType": "bytes32",
          "name": "_recipient",
          "type": "bytes32"
        },
        {
          "internalType": "uint256",
          "name": "_amountOrId",
          "type": "uint256"
        }
      ],
      "name": "transferRemote",
      "outputs": [
        {
          "internalType": "bytes32",
          "name": "messageId",
          "type": "bytes32"
        }
      ],
      "stateMutability": "payable",
      "type": "function"
    }
  ],
  "bytecode": "0x60c06040523480156200001157600080fd5b5060405162005fad38038062005fad83398181016040528101906200003791906200008f565b81608081815250508060a081815250505050620000d6565b600080fd5b6000819050919050565b620000698162000054565b81146200007557600080fd5b50565b60008151905062000089816200005e565b92915050565b60008060408385031215620000a957620000a86200004f565b5b6000620000b98582860162000078565b9250506020620000cc8582860162000078565b9150509250929050565b60805160a051615ead62000100600039600050506000818161122c01526116ed0152615ead6000f3fe60806040526004361061020f5760003560e01c8063892f44d011610118578063d5438eae116100a0578063e985e9c51161006f578063e985e9c5146107b7578063f1bd6f0a146107f4578063f2ed8c531461081d578063f2fde38b1461085a578063f3c61d6b146108835761020f565b8063d5438eae1461070d578063db6152ce14610738578063de523cf314610763578063e9198bf91461078e5761020f565b8063a22cb465116100e7578063a22cb4651461062c578063b1bd643614610655578063b49c53a71461067e578063b88d4fde146106a7578063c87b56dd146106d05761020f565b8063892f44d01461057d5780638da5cb5b1461059957806395d89b41146105c45780639c42efce146105ef5761020f565b806342842e0e1161019b57806370a082311161016a57806370a082311461047f578063715018a6146104bc57806372886156146104d3578063775313a11461051057806381b4e8b41461054d5761020f565b806342842e0e146103c5578063440df4f4146103ee57806356d5d475146104195780636352211e146104425761020f565b80630e72cc06116101e25780630e72cc06146102e25780632016a0d21461030b57806323b872dd146103345780632ead72f61461035d57806339bb4ad91461039a5761020f565b806301ffc9a71461021457806306fdde0314610251578063081812fc1461027c578063095ea7b3146102b9575b600080fd5b34801561022057600080fd5b5061023b60048036038101906102369190613ce4565b6108ac565b6040516102489190613d2c565b60405180910390f35b34801561025d57600080fd5b5061026661098e565b6040516102739190613de0565b60405180910390f35b34801561028857600080fd5b506102a3600480360381019061029e9190613e38565b610a20565b6040516102b09190613ea6565b60405180910390f35b3480156102c557600080fd5b506102e060048036038101906102db9190613eed565b610a66565b005b3480156102ee57600080fd5b5061030960048036038101906103049190613f2d565b610b7d565b005b34801561031757600080fd5b50610332600480360381019061032d919061408f565b610b91565b005b34801561034057600080fd5b5061035b6004803603810190610356919061412e565b610cdf565b005b34801561036957600080fd5b50610384600480360381019061037f91906141bd565b610d3f565b6040516103919190614203565b60405180910390f35b3480156103a657600080fd5b506103af610d8f565b6040516103bc919061427d565b60405180910390f35b3480156103d157600080fd5b506103ec60048036038101906103e7919061412e565b610db5565b005b3480156103fa57600080fd5b50610403610dd5565b6040516104109190614356565b60405180910390f35b34801561042557600080fd5b50610440600480360381019061043b9190614404565b610eb0565b005b34801561044e57600080fd5b5061046960048036038101906104649190613e38565b610fbb565b6040516104769190613ea6565b60405180910390f35b34801561048b57600080fd5b506104a660048036038101906104a19190613f2d565b611041565b6040516104b39190614487565b60405180910390f35b3480156104c857600080fd5b506104d16110f8565b005b3480156104df57600080fd5b506104fa60048036038101906104f59190613f2d565b61110c565b6040516105079190614560565b60405180910390f35b34801561051c57600080fd5b50610537600480360381019061053291906141bd565b6111a4565b6040516105449190614487565b60405180910390f35b61056760048036038101906105629190614582565b6111bd565b6040516105749190614203565b60405180910390f35b6105976004803603810190610592919061462b565b61122a565b005b3480156105a557600080fd5b506105ae6113b8565b6040516105bb9190613ea6565b60405180910390f35b3480156105d057600080fd5b506105d96113e2565b6040516105e69190613de0565b60405180910390f35b3480156105fb57600080fd5b5061061660048036038101906106119190613eed565b611474565b6040516106239190614487565b60405180910390f35b34801561063857600080fd5b50610653600480360381019061064e91906146d8565b6114a6565b005b34801561066157600080fd5b5061067c6004803603810190610677919061476e565b6114bc565b005b34801561068a57600080fd5b506106a560048036038101906106a091906147bb565b61153b565b005b3480156106b357600080fd5b506106ce60048036038101906106c9919061489c565b611551565b005b3480156106dc57600080fd5b506106f760048036038101906106f29190613e38565b6115b3565b6040516107049190613de0565b60405180910390f35b34801561071957600080fd5b506107226116c5565b60405161072f9190614940565b60405180910390f35b34801561074457600080fd5b5061074d6116eb565b60405161075a9190614487565b60405180910390f35b34801561076f57600080fd5b5061077861170f565b604051610785919061497c565b60405180910390f35b34801561079a57600080fd5b506107b560048036038101906107b09190614a43565b611735565b005b3480156107c357600080fd5b506107de60048036038101906107d99190614ac4565b6117f8565b6040516107eb9190613d2c565b60405180910390f35b34801561080057600080fd5b5061081b60048036038101906108169190613f2d565b61188c565b005b34801561082957600080fd5b50610844600480360381019061083f91906141bd565b6118a0565b6040516108519190614487565b60405180910390f35b34801561086657600080fd5b50610881600480360381019061087c9190613f2d565b611967565b005b34801561088f57600080fd5b506108aa60048036038101906108a59190613f2d565b6119ea565b005b60007f80ac58cd000000000000000000000000000000000000000000000000000000007bffffffffffffffffffffffffffffffffffffffffffffffffffffffff1916827bffffffffffffffffffffffffffffffffffffffffffffffffffffffff1916148061097757507f5b5e139f000000000000000000000000000000000000000000000000000000007bffffffffffffffffffffffffffffffffffffffffffffffffffffffff1916827bffffffffffffffffffffffffffffffffffffffffffffffffffffffff1916145b806109875750610986826119fe565b5b9050919050565b60606065805461099d90614b33565b80601f01602080910402602001604051908101604052809291908181526020018280546109c990614b33565b8015610a165780601f106109eb57610100808354040283529160200191610a16565b820191906000526020600020905b8154815290600101906020018083116109f957829003601f168201915b5050505050905090565b6000610a2b82611a68565b6069600083815260200190815260200160002060009054906101000a900473ffffffffffffffffffffffffffffffffffffffff169050919050565b6000610a7182610fbb565b90508073ffffffffffffffffffffffffffffffffffffffff168373ffffffffffffffffffffffffffffffffffffffff1603610ae1576040517f08c379a0000000000000000000000000000000000000000000000000000000008152600401610ad890614bd6565b60405180910390fd5b8073ffffffffffffffffffffffffffffffffffffffff16610b00611ab3565b73ffffffffffffffffffffffffffffffffffffffff161480610b2f5750610b2e81610b29611ab3565b6117f8565b5b610b6e576040517f08c379a0000000000000000000000000000000000000000000000000000000008152600401610b6590614c68565b60405180910390fd5b610b788383611abb565b505050565b610b85611b74565b610b8e81611bf2565b50565b60008060019054906101000a900460ff16159050808015610bc25750600160008054906101000a900460ff1660ff16105b80610bef5750610bd130611cf8565b158015610bee5750600160008054906101000a900460ff1660ff16145b5b610c2e576040517f08c379a0000000000000000000000000000000000000000000000000000000008152600401610c2590614cfa565b60405180910390fd5b60016000806101000a81548160ff021916908360ff1602179055508015610c6b576001600060016101000a81548160ff0219169083151502179055505b610c758585611d1b565b610c7f8383611d80565b8015610cd85760008060016101000a81548160ff0219169083151502179055507f7f26b83ff96e1f2b6a682f133852f6798a09c465da95921460cefb38474024986001604051610ccf9190614d62565b60405180910390a15b5050505050565b610cf0610cea611ab3565b82611ddd565b610d2f576040517f08c379a0000000000000000000000000000000000000000000000000000000008152600401610d2690614def565b60405180910390fd5b610d3a838383611e72565b505050565b6000610d5c8263ffffffff1661012e61216b90919063ffffffff16565b15610d8357610d7c8263ffffffff1661012e61218e90919063ffffffff16565b9050610d8a565b6000801b90505b919050565b60fc60009054906101000a900473ffffffffffffffffffffffffffffffffffffffff1681565b610dd083838360405180602001604052806000815250611551565b505050565b60606000610de461012e6121b1565b90506000818054905067ffffffffffffffff811115610e0657610e05613f64565b5b604051908082528060200260200182016040528015610e345781602001602082028036833780820191505090505b50905060005b8280549050811015610ea757828181548110610e5957610e58614e0f565b5b906000526020600020015460001c828281518110610e7a57610e79614e0f565b5b602002602001019063ffffffff16908163ffffffff16815250508080610e9f90614e6d565b915050610e3a565b50809250505090565b60fb60009054906101000a900473ffffffffffffffffffffffffffffffffffffffff1673ffffffffffffffffffffffffffffffffffffffff163373ffffffffffffffffffffffffffffffffffffffff1614610f40576040517f08c379a0000000000000000000000000000000000000000000000000000000008152600401610f3790614f01565b60405180910390fd5b8383610f4c82826121c7565b604051806080016040528060438152602001615e356043913990610fa6576040517f08c379a0000000000000000000000000000000000000000000000000000000008152600401610f9d9190613de0565b60405180910390fd5b50610fb3868686866121dc565b505050505050565b600080610fc783612266565b9050600073ffffffffffffffffffffffffffffffffffffffff168173ffffffffffffffffffffffffffffffffffffffff1603611038576040517f08c379a000000000000000000000000000000000000000000000000000000000815260040161102f90614f6d565b60405180910390fd5b80915050919050565b60008073ffffffffffffffffffffffffffffffffffffffff168273ffffffffffffffffffffffffffffffffffffffff16036110b1576040517f08c379a00000000000000000000000000000000000000000000000000000000081526004016110a890614fff565b60405180910390fd5b606860008373ffffffffffffffffffffffffffffffffffffffff1673ffffffffffffffffffffffffffffffffffffffff168152602001908152602001600020549050919050565b611100611b74565b61110a60006122a3565b565b606061016360008373ffffffffffffffffffffffffffffffffffffffff1673ffffffffffffffffffffffffffffffffffffffff16815260200190815260200160002080548060200260200160405190810160405280929190818152602001828054801561119857602002820191906000526020600020905b815481526020019060010190808311611184575b50505050509050919050565b6101626020528060005260406000206000915090505481565b6000806111c983612369565b90506111e1856111da8686856124ad565b34336124dc565b9150838563ffffffff167fd229aacb94204188fe8042965fa6b269c62dc5818b21238779ab64bdd17efeec8560405161121a9190614487565b60405180910390a3509392505050565b7f0000000000000000000000000000000000000000000000000000000000000000341015611284576040517f5acb547600000000000000000000000000000000000000000000000000000000815260040160405180910390fd5b6000611291610164612515565b905061129e610164612523565b6112a83382612539565b600061133d86868080601f016020809104026020016040519081016040528093929190818152602001838380828437600081840152601f19601f8201169050808301925050505050505085858080601f016020809104026020016040519081016040528093929190818152602001838380828437600081840152601f19601f8201169050808301925050505050505084612557565b905061134982826125b3565b61016360003373ffffffffffffffffffffffffffffffffffffffff1673ffffffffffffffffffffffffffffffffffffffff168152602001908152602001600020829080600181540180825580915050600190039060005260206000200160009091909190915055505050505050565b600060c960009054906101000a900473ffffffffffffffffffffffffffffffffffffffff16905090565b6060606680546113f190614b33565b80601f016020809104026020016040519081016040528092919081815260200182805461141d90614b33565b801561146a5780601f1061143f5761010080835404028352916020019161146a565b820191906000526020600020905b81548152906001019060200180831161144d57829003601f168201915b5050505050905090565b610163602052816000526040600020818154811061149157600080fd5b90600052602060002001600091509150505481565b6114b86114b1611ab3565b8383612627565b5050565b6114c4611b74565b60005b82829050811015611536576115228383838181106114e8576114e7614e0f565b5b905060400201600001602081019061150091906141bd565b84848481811061151357611512614e0f565b5b90506040020160200135612793565b60018161152f919061501f565b90506114c7565b505050565b611543611b74565b61154d82826127fa565b5050565b61156261155c611ab3565b83611ddd565b6115a1576040517f08c379a000000000000000000000000000000000000000000000000000000000815260040161159890614def565b60405180910390fd5b6115ad8484848461284f565b50505050565b60606115be82611a68565b60006097600084815260200190815260200160002080546115de90614b33565b80601f016020809104026020016040519081016040528092919081815260200182805461160a90614b33565b80156116575780601f1061162c57610100808354040283529160200191611657565b820191906000526020600020905b81548152906001019060200180831161163a57829003601f168201915b5050505050905060006116686128ab565b9050600081510361167d5781925050506116c0565b6000825111156116b257808260405160200161169a9291906150b1565b604051602081830303815290604052925050506116c0565b6116bb846128c2565b925050505b919050565b60fb60009054906101000a900473ffffffffffffffffffffffffffffffffffffffff1681565b7f000000000000000000000000000000000000000000000000000000000000000081565b60fd60009054906101000a900473ffffffffffffffffffffffffffffffffffffffff1681565b61173d611b74565b818190508484905014611785576040517f08c379a000000000000000000000000000000000000000000000000000000000815260040161177c90615121565b60405180910390fd5b60005b848490508110156117f1576117dd8585838181106117a9576117a8614e0f565b5b90506020020160208101906117be91906141bd565b8484848181106117d1576117d0614e0f565b5b905060200201356127fa565b6001816117ea919061501f565b9050611788565b5050505050565b6000606a60008473ffffffffffffffffffffffffffffffffffffffff1673ffffffffffffffffffffffffffffffffffffffff16815260200190815260200160002060008373ffffffffffffffffffffffffffffffffffffffff1673ffffffffffffffffffffffffffffffffffffffff16815260200190815260200160002060009054906101000a900460ff16905092915050565b611894611b74565b61189d8161292a565b50565b600060fc60009054906101000a900473ffffffffffffffffffffffffffffffffffffffff1673ffffffffffffffffffffffffffffffffffffffff1663a69297938361016260008663ffffffff1663ffffffff168152602001908152602001600020546040518363ffffffff1660e01b815260040161191f929190615150565b602060405180830381865afa15801561193c573d6000803e3d6000fd5b505050506040513d601f19601f82011682018060405250810190611960919061518e565b9050919050565b61196f611b74565b600073ffffffffffffffffffffffffffffffffffffffff168173ffffffffffffffffffffffffffffffffffffffff16036119de576040517f08c379a00000000000000000000000000000000000000000000000000000000081526004016119d59061522d565b60405180910390fd5b6119e7816122a3565b50565b6119f2611b74565b6119fb816129fb565b50565b60007f01ffc9a7000000000000000000000000000000000000000000000000000000007bffffffffffffffffffffffffffffffffffffffffffffffffffffffff1916827bffffffffffffffffffffffffffffffffffffffffffffffffffffffff1916149050919050565b611a7181612acc565b611ab0576040517f08c379a0000000000000000000000000000000000000000000000000000000008152600401611aa790614f6d565b60405180910390fd5b50565b600033905090565b816069600083815260200190815260200160002060006101000a81548173ffffffffffffffffffffffffffffffffffffffff021916908373ffffffffffffffffffffffffffffffffffffffff160217905550808273ffffffffffffffffffffffffffffffffffffffff16611b2e83610fbb565b73ffffffffffffffffffffffffffffffffffffffff167f8c5be1e5ebec7d5bd14f71427d1e84f3dd0314c0f7b2291e5b200ac8c7c3b92560405160405180910390a45050565b611b7c611ab3565b73ffffffffffffffffffffffffffffffffffffffff16611b9a6113b8565b73ffffffffffffffffffffffffffffffffffffffff1614611bf0576040517f08c379a0000000000000000000000000000000000000000000000000000000008152600401611be790615299565b60405180910390fd5b565b600073ffffffffffffffffffffffffffffffffffffffff168173ffffffffffffffffffffffffffffffffffffffff161480611c325750611c3181612b0d565b5b611c71576040517f08c379a0000000000000000000000000000000000000000000000000000000008152600401611c6890615305565b60405180910390fd5b8060fd60006101000a81548173ffffffffffffffffffffffffffffffffffffffff021916908373ffffffffffffffffffffffffffffffffffffffff1602179055508073ffffffffffffffffffffffffffffffffffffffff167ffec811ed4e60aebdaf7a79cad8a97196bf56e35362f039705598226d30c9d24860405160405180910390a250565b6000808273ffffffffffffffffffffffffffffffffffffffff163b119050919050565b600060019054906101000a900460ff16611d6a576040517f08c379a0000000000000000000000000000000000000000000000000000000008152600401611d6190615397565b60405180910390fd5b611d738161292a565b611d7c82612b30565b5050565b600060019054906101000a900460ff16611dcf576040517f08c379a0000000000000000000000000000000000000000000000000000000008152600401611dc690615397565b60405180910390fd5b611dd98282612b93565b5050565b600080611de983610fbb565b90508073ffffffffffffffffffffffffffffffffffffffff168473ffffffffffffffffffffffffffffffffffffffff161480611e2b5750611e2a81856117f8565b5b80611e6957508373ffffffffffffffffffffffffffffffffffffffff16611e5184610a20565b73ffffffffffffffffffffffffffffffffffffffff16145b91505092915050565b8273ffffffffffffffffffffffffffffffffffffffff16611e9282610fbb565b73ffffffffffffffffffffffffffffffffffffffff1614611ee8576040517f08c379a0000000000000000000000000000000000000000000000000000000008152600401611edf90615429565b60405180910390fd5b600073ffffffffffffffffffffffffffffffffffffffff168273ffffffffffffffffffffffffffffffffffffffff1603611f57576040517f08c379a0000000000000000000000000000000000000000000000000000000008152600401611f4e906154bb565b60405180910390fd5b611f648383836001612c14565b8273ffffffffffffffffffffffffffffffffffffffff16611f8482610fbb565b73ffffffffffffffffffffffffffffffffffffffff1614611fda576040517f08c379a0000000000000000000000000000000000000000000000000000000008152600401611fd190615429565b60405180910390fd5b6069600082815260200190815260200160002060006101000a81549073ffffffffffffffffffffffffffffffffffffffff02191690556001606860008573ffffffffffffffffffffffffffffffffffffffff1673ffffffffffffffffffffffffffffffffffffffff168152602001908152602001600020600082825403925050819055506001606860008473ffffffffffffffffffffffffffffffffffffffff1673ffffffffffffffffffffffffffffffffffffffff16815260200190815260200160002060008282540192505081905550816067600083815260200190815260200160002060006101000a81548173ffffffffffffffffffffffffffffffffffffffff021916908373ffffffffffffffffffffffffffffffffffffffff160217905550808273ffffffffffffffffffffffffffffffffffffffff168473ffffffffffffffffffffffffffffffffffffffff167fddf252ad1be2c89b69c2b068fc378daa952ba7f163c4a11628f55a4df523b3ef60405160405180910390a46121668383836001612c1a565b505050565b60006121868260001b84600001612c2090919063ffffffff16565b905092915050565b60006121a98260001b84600001612c4090919063ffffffff16565b905092915050565b6000816000016000016000016000019050919050565b6000816121d384610d3f565b14905092915050565b60006121e88383612cbc565b905060006121f68484612ce5565b90503660006122058686612d11565b9150915061221d61221585612d32565b848484612d3f565b838863ffffffff167fba20947a325f450d232530e5f5fce293e7963499d5309a07cee84a269f2f15a6856040516122549190614487565b60405180910390a35050505050505050565b60006067600083815260200190815260200160002060009054906101000a900473ffffffffffffffffffffffffffffffffffffffff169050919050565b600060c960009054906101000a900473ffffffffffffffffffffffffffffffffffffffff1690508160c960006101000a81548173ffffffffffffffffffffffffffffffffffffffff021916908373ffffffffffffffffffffffffffffffffffffffff1602179055508173ffffffffffffffffffffffffffffffffffffffff168173ffffffffffffffffffffffffffffffffffffffff167f8be0079c531659141344cd1fd0a4f28419497f9722a3daafe3b4186f6b6457e060405160405180910390a35050565b60603373ffffffffffffffffffffffffffffffffffffffff1661238b83610fbb565b73ffffffffffffffffffffffffffffffffffffffff16146123e1576040517f08c379a00000000000000000000000000000000000000000000000000000000081526004016123d890615527565b60405180910390fd5b6123ea82612e04565b600061016360003373ffffffffffffffffffffffffffffffffffffffff1673ffffffffffffffffffffffffffffffffffffffff168152602001908152602001600020905060005b8180549050811015612494578382828154811061245157612450614e0f565b5b9060005260206000200154036124875781818154811061247457612473614e0f565b5b9060005260206000200160009055612494565b8080600101915050612431565b5060405180602001604052806000815250915050919050565b60608383836040516020016124c4939291906155d0565b60405160208183030381529060405290509392505050565b600061250b858561016260008963ffffffff1663ffffffff168152602001908152602001600020548686612e57565b9050949350505050565b600081600001549050919050565b6001816000016000828254019250508190555050565b612553828260405180602001604052806000815250612f02565b5050565b606060008460405160200161256c91906156a1565b604051602081830303815290604052905061258683612f5d565b818560405160200161259a93929190615870565b6040516020818303038152906040529150509392505050565b6125bc82612acc565b6125fb576040517f08c379a00000000000000000000000000000000000000000000000000000000081526004016125f29061594a565b60405180910390fd5b80609760008481526020019081526020016000209080519060200190612622929190613b95565b505050565b8173ffffffffffffffffffffffffffffffffffffffff168373ffffffffffffffffffffffffffffffffffffffff1603612695576040517f08c379a000000000000000000000000000000000000000000000000000000000815260040161268c906159b6565b60405180910390fd5b80606a60008573ffffffffffffffffffffffffffffffffffffffff1673ffffffffffffffffffffffffffffffffffffffff16815260200190815260200160002060008473ffffffffffffffffffffffffffffffffffffffff1673ffffffffffffffffffffffffffffffffffffffff16815260200190815260200160002060006101000a81548160ff0219169083151502179055508173ffffffffffffffffffffffffffffffffffffffff168373ffffffffffffffffffffffffffffffffffffffff167f17307eab39ab6107e8899845ad3d59bd9653f200f220920489ca2b5937696c31836040516127869190613d2c565b60405180910390a3505050565b8061016260008463ffffffff1663ffffffff168152602001908152602001600020819055508163ffffffff167f90563f253ecb04527a6a7ae1a8cbe2bdc6caefb39d5f7b06a973cf5e7f8035a4826040516127ee9190614487565b60405180910390a25050565b6128178263ffffffff168261012e61302b9092919063ffffffff16565b808263ffffffff167f97fd51fef1f80c854cbd0150c248e8b2ac4ecdc97cc05e742b5f61c9f4dc645860405160405180910390a35050565b61285a848484611e72565b6128668484848461304c565b6128a5576040517f08c379a000000000000000000000000000000000000000000000000000000000815260040161289c90615a48565b60405180910390fd5b50505050565b606060405180602001604052806000815250905090565b60606128cd82611a68565b60006128d76128ab565b905060008151116128f75760405180602001604052806000815250612922565b80612901846131d3565b6040516020016129129291906150b1565b6040516020818303038152906040525b915050919050565b8061293481612b0d565b612973576040517f08c379a000000000000000000000000000000000000000000000000000000000815260040161296a90615305565b60405180910390fd5b8160fc60006101000a81548173ffffffffffffffffffffffffffffffffffffffff021916908373ffffffffffffffffffffffffffffffffffffffff1602179055508173ffffffffffffffffffffffffffffffffffffffff167fb87f5a0bface22cde699143559fb99f990ae54eea236995fc54178af91af859f60405160405180910390a25050565b80612a0581612b0d565b612a44576040517f08c379a0000000000000000000000000000000000000000000000000000000008152600401612a3b90615305565b60405180910390fd5b8160fb60006101000a81548173ffffffffffffffffffffffffffffffffffffffff021916908373ffffffffffffffffffffffffffffffffffffffff1602179055508173ffffffffffffffffffffffffffffffffffffffff167f7a61e573722ff8b205c8962b59d37e7d30573f368965597a844a94872204ebd760405160405180910390a25050565b60008073ffffffffffffffffffffffffffffffffffffffff16612aee83612266565b73ffffffffffffffffffffffffffffffffffffffff1614159050919050565b6000808273ffffffffffffffffffffffffffffffffffffffff163b119050919050565b600060019054906101000a900460ff16612b7f576040517f08c379a0000000000000000000000000000000000000000000000000000000008152600401612b7690615397565b60405180910390fd5b612b88816129fb565b612b906132a1565b50565b600060019054906101000a900460ff16612be2576040517f08c379a0000000000000000000000000000000000000000000000000000000008152600401612bd990615397565b60405180910390fd5b8160659080519060200190612bf8929190613b95565b508060669080519060200190612c0f929190613b95565b505050565b50505050565b50505050565b6000612c3882846000016132fa90919063ffffffff16565b905092915050565b6000808360020160008481526020019081526020016000205490506000801b81141580612c735750612c728484612c20565b5b612cb2576040517f08c379a0000000000000000000000000000000000000000000000000000000008152600401612ca990615ab4565b60405180910390fd5b8091505092915050565b60008282600090602092612cd293929190615ade565b90612cdd9190615b31565b905092915050565b60008282602090604092612cfb93929190615ade565b90612d069190615b31565b60001c905092915050565b36600083836040908092612d2793929190615ade565b915091509250929050565b60008160001c9050919050565b612d498484612539565b612d978383838080601f016020809104026020016040519081016040528093929190818152602001838380828437600081840152601f19601f820116905080830192505050505050506125b3565b61016360003373ffffffffffffffffffffffffffffffffffffffff1673ffffffffffffffffffffffffffffffffffffffff16815260200190815260200160002083908060018154018082558091505060019003906000526020600020016000909190919091505550505050565b612e0d81613311565b6000609760008381526020019081526020016000208054612e2d90614b33565b905014612e5457609760008281526020019081526020016000206000612e539190613c1b565b5b50565b6000612e63868661345f565b905060fc60009054906101000a900473ffffffffffffffffffffffffffffffffffffffff1673ffffffffffffffffffffffffffffffffffffffff166311bf2c1884838988876040518663ffffffff1660e01b8152600401612ec79493929190615b90565b6000604051808303818588803b158015612ee057600080fd5b505af1158015612ef4573d6000803e3d6000fd5b505050505095945050505050565b612f0c8383613518565b612f19600084848461304c565b612f58576040517f08c379a0000000000000000000000000000000000000000000000000000000008152600401612f4f90615a48565b60405180910390fd5b505050565b606060006001612f6c84613735565b01905060008167ffffffffffffffff811115612f8b57612f8a613f64565b5b6040519080825280601f01601f191660200182016040528015612fbd5781602001600182028036833780820191505090505b509050600082602001820190505b600115613020578080600190039150507f3031323334353637383961626364656600000000000000000000000000000000600a86061a8153600a858161301457613013615bd5565b5b04945060008503612fcb575b819350505050919050565b6130468260001b82856000016138889092919063ffffffff16565b50505050565b600061306d8473ffffffffffffffffffffffffffffffffffffffff16611cf8565b156131c6578373ffffffffffffffffffffffffffffffffffffffff1663150b7a02613096611ab3565b8786866040518563ffffffff1660e01b81526004016130b89493929190615c4e565b6020604051808303816000875af19250505080156130f457506040513d601f19601f820116820180604052508101906130f19190615caf565b60015b613176573d8060008114613124576040519150601f19603f3d011682016040523d82523d6000602084013e613129565b606091505b50600081510361316e576040517f08c379a000000000000000000000000000000000000000000000000000000000815260040161316590615a48565b60405180910390fd5b805181602001fd5b63150b7a0260e01b7bffffffffffffffffffffffffffffffffffffffffffffffffffffffff1916817bffffffffffffffffffffffffffffffffffffffffffffffffffffffff1916149150506131cb565b600190505b949350505050565b6060600060016131e2846138c3565b01905060008167ffffffffffffffff81111561320157613200613f64565b5b6040519080825280601f01601f1916602001820160405280156132335781602001600182028036833780820191505090505b509050600082602001820190505b600115613296578080600190039150507f3031323334353637383961626364656600000000000000000000000000000000600a86061a8153600a858161328a57613289615bd5565b5b04945060008503613241575b819350505050919050565b600060019054906101000a900460ff166132f0576040517f08c379a00000000000000000000000000000000000000000000000000000000081526004016132e790615397565b60405180910390fd5b6132f8613a16565b565b60006133098360000183613a77565b905092915050565b600061331c82610fbb565b905061332c816000846001612c14565b61333582610fbb565b90506069600083815260200190815260200160002060006101000a81549073ffffffffffffffffffffffffffffffffffffffff02191690556001606860008373ffffffffffffffffffffffffffffffffffffffff1673ffffffffffffffffffffffffffffffffffffffff168152602001908152602001600020600082825403925050819055506067600083815260200190815260200160002060006101000a81549073ffffffffffffffffffffffffffffffffffffffff021916905581600073ffffffffffffffffffffffffffffffffffffffff168273ffffffffffffffffffffffffffffffffffffffff167fddf252ad1be2c89b69c2b068fc378daa952ba7f163c4a11628f55a4df523b3ef60405160405180910390a461345b816000846001612c1a565b5050565b60008061346b84613a9a565b905060fb60009054906101000a900473ffffffffffffffffffffffffffffffffffffffff1673ffffffffffffffffffffffffffffffffffffffff1663fa31de018583866040518463ffffffff1660e01b81526004016134cc93929190615cdc565b6020604051808303816000875af11580156134eb573d6000803e3d6000fd5b505050506040513d601f19601f8201168201806040525081019061350f9190615d2f565b91505092915050565b600073ffffffffffffffffffffffffffffffffffffffff168273ffffffffffffffffffffffffffffffffffffffff1603613587576040517f08c379a000000000000000000000000000000000000000000000000000000000815260040161357e90615da8565b60405180910390fd5b61359081612acc565b156135d0576040517f08c379a00000000000000000000000000000000000000000000000000000000081526004016135c790615e14565b60405180910390fd5b6135de600083836001612c14565b6135e781612acc565b15613627576040517f08c379a000000000000000000000000000000000000000000000000000000000815260040161361e90615e14565b60405180910390fd5b6001606860008473ffffffffffffffffffffffffffffffffffffffff1673ffffffffffffffffffffffffffffffffffffffff16815260200190815260200160002060008282540192505081905550816067600083815260200190815260200160002060006101000a81548173ffffffffffffffffffffffffffffffffffffffff021916908373ffffffffffffffffffffffffffffffffffffffff160217905550808273ffffffffffffffffffffffffffffffffffffffff16600073ffffffffffffffffffffffffffffffffffffffff167fddf252ad1be2c89b69c2b068fc378daa952ba7f163c4a11628f55a4df523b3ef60405160405180910390a4613731600083836001612c1a565b5050565b600080600090507a184f03e93ff9f4daa797ed6e38ed64bf6a1f0100000000000000008310613793577a184f03e93ff9f4daa797ed6e38ed64bf6a1f010000000000000000838161378957613788615bd5565b5b0492506040810190505b6d04ee2d6d415b85acef810000000083106137d0576d04ee2d6d415b85acef810000000083816137c6576137c5615bd5565b5b0492506020810190505b662386f26fc1000083106137ff57662386f26fc1000083816137f5576137f4615bd5565b5b0492506010810190505b6305f5e1008310613828576305f5e100838161381e5761381d615bd5565b5b0492506008810190505b612710831061384d57612710838161384357613842615bd5565b5b0492506004810190505b60648310613870576064838161386657613865615bd5565b5b0492506002810190505b600a831061387f576001810190505b80915050919050565b600081846002016000858152602001908152602001600020819055506138ba8385600001613b0e90919063ffffffff16565b90509392505050565b600080600090507a184f03e93ff9f4daa797ed6e38ed64bf6a1f0100000000000000008310613921577a184f03e93ff9f4daa797ed6e38ed64bf6a1f010000000000000000838161391757613916615bd5565b5b0492506040810190505b6d04ee2d6d415b85acef8100000000831061395e576d04ee2d6d415b85acef8100000000838161395457613953615bd5565b5b0492506020810190505b662386f26fc10000831061398d57662386f26fc10000838161398357613982615bd5565b5b0492506010810190505b6305f5e10083106139b6576305f5e10083816139ac576139ab615bd5565b5b0492506008810190505b61271083106139db5761271083816139d1576139d0615bd5565b5b0492506004810190505b606483106139fe57606483816139f4576139f3615bd5565b5b0492506002810190505b600a8310613a0d576001810190505b80915050919050565b600060019054906101000a900460ff16613a65576040517f08c379a0000000000000000000000000000000000000000000000000000000008152600401613a5c90615397565b60405180910390fd5b613a75613a70611ab3565b6122a3565b565b600080836001016000848152602001908152602001600020541415905092915050565b6000613aa582610d3f565b90506000801b811415604051806080016040528060438152602001615e356043913990613b08576040517f08c379a0000000000000000000000000000000000000000000000000000000008152600401613aff9190613de0565b60405180910390fd5b50919050565b6000613b1d8360000183613b25565b905092915050565b6000613b318383613a77565b613b8a578260000182908060018154018082558091505060019003906000526020600020016000909190919091505582600001805490508360010160008481526020019081526020016000208190555060019050613b8f565b600090505b92915050565b828054613ba190614b33565b90600052602060002090601f016020900481019282613bc35760008555613c0a565b82601f10613bdc57805160ff1916838001178555613c0a565b82800160010185558215613c0a579182015b82811115613c09578251825591602001919060010190613bee565b5b509050613c179190613c5b565b5090565b508054613c2790614b33565b6000825580601f10613c395750613c58565b601f016020900490600052602060002090810190613c579190613c5b565b5b50565b5b80821115613c74576000816000905550600101613c5c565b5090565b6000604051905090565b600080fd5b600080fd5b60007fffffffff0000000000000000000000000000000000000000000000000000000082169050919050565b613cc181613c8c565b8114613ccc57600080fd5b50565b600081359050613cde81613cb8565b92915050565b600060208284031215613cfa57613cf9613c82565b5b6000613d0884828501613ccf565b91505092915050565b60008115159050919050565b613d2681613d11565b82525050565b6000602082019050613d416000830184613d1d565b92915050565b600081519050919050565b600082825260208201905092915050565b60005b83811015613d81578082015181840152602081019050613d66565b83811115613d90576000848401525b50505050565b6000601f19601f8301169050919050565b6000613db282613d47565b613dbc8185613d52565b9350613dcc818560208601613d63565b613dd581613d96565b840191505092915050565b60006020820190508181036000830152613dfa8184613da7565b905092915050565b6000819050919050565b613e1581613e02565b8114613e2057600080fd5b50565b600081359050613e3281613e0c565b92915050565b600060208284031215613e4e57613e4d613c82565b5b6000613e5c84828501613e23565b91505092915050565b600073ffffffffffffffffffffffffffffffffffffffff82169050919050565b6000613e9082613e65565b9050919050565b613ea081613e85565b82525050565b6000602082019050613ebb6000830184613e97565b92915050565b613eca81613e85565b8114613ed557600080fd5b50565b600081359050613ee781613ec1565b92915050565b60008060408385031215613f0457613f03613c82565b5b6000613f1285828601613ed8565b9250506020613f2385828601613e23565b9150509250929050565b600060208284031215613f4357613f42613c82565b5b6000613f5184828501613ed8565b91505092915050565b600080fd5b600080fd5b7f4e487b7100000000000000000000000000000000000000000000000000000000600052604160045260246000fd5b613f9c82613d96565b810181811067ffffffffffffffff82111715613fbb57613fba613f64565b5b80604052505050565b6000613fce613c78565b9050613fda8282613f93565b919050565b600067ffffffffffffffff821115613ffa57613ff9613f64565b5b61400382613d96565b9050602081019050919050565b82818337600083830152505050565b600061403261402d84613fdf565b613fc4565b90508281526020810184848401111561404e5761404d613f5f565b5b614059848285614010565b509392505050565b600082601f83011261407657614075613f5a565b5b813561408684826020860161401f565b91505092915050565b600080600080608085870312156140a9576140a8613c82565b5b60006140b787828801613ed8565b94505060206140c887828801613ed8565b935050604085013567ffffffffffffffff8111156140e9576140e8613c87565b5b6140f587828801614061565b925050606085013567ffffffffffffffff81111561411657614115613c87565b5b61412287828801614061565b91505092959194509250565b60008060006060848603121561414757614146613c82565b5b600061415586828701613ed8565b935050602061416686828701613ed8565b925050604061417786828701613e23565b9150509250925092565b600063ffffffff82169050919050565b61419a81614181565b81146141a557600080fd5b50565b6000813590506141b781614191565b92915050565b6000602082840312156141d3576141d2613c82565b5b60006141e1848285016141a8565b91505092915050565b6000819050919050565b6141fd816141ea565b82525050565b600060208201905061421860008301846141f4565b92915050565b6000819050919050565b600061424361423e61423984613e65565b61421e565b613e65565b9050919050565b600061425582614228565b9050919050565b60006142678261424a565b9050919050565b6142778161425c565b82525050565b6000602082019050614292600083018461426e565b92915050565b600081519050919050565b600082825260208201905092915050565b6000819050602082019050919050565b6142cd81614181565b82525050565b60006142df83836142c4565b60208301905092915050565b6000602082019050919050565b600061430382614298565b61430d81856142a3565b9350614318836142b4565b8060005b8381101561434957815161433088826142d3565b975061433b836142eb565b92505060018101905061431c565b5085935050505092915050565b6000602082019050818103600083015261437081846142f8565b905092915050565b614381816141ea565b811461438c57600080fd5b50565b60008135905061439e81614378565b92915050565b600080fd5b600080fd5b60008083601f8401126143c4576143c3613f5a565b5b8235905067ffffffffffffffff8111156143e1576143e06143a4565b5b6020830191508360018202830111156143fd576143fc6143a9565b5b9250929050565b6000806000806060858703121561441e5761441d613c82565b5b600061442c878288016141a8565b945050602061443d8782880161438f565b935050604085013567ffffffffffffffff81111561445e5761445d613c87565b5b61446a878288016143ae565b925092505092959194509250565b61448181613e02565b82525050565b600060208201905061449c6000830184614478565b92915050565b600081519050919050565b600082825260208201905092915050565b6000819050602082019050919050565b6144d781613e02565b82525050565b60006144e983836144ce565b60208301905092915050565b6000602082019050919050565b600061450d826144a2565b61451781856144ad565b9350614522836144be565b8060005b8381101561455357815161453a88826144dd565b9750614545836144f5565b925050600181019050614526565b5085935050505092915050565b6000602082019050818103600083015261457a8184614502565b905092915050565b60008060006060848603121561459b5761459a613c82565b5b60006145a9868287016141a8565b93505060206145ba8682870161438f565b92505060406145cb86828701613e23565b9150509250925092565b60008083601f8401126145eb576145ea613f5a565b5b8235905067ffffffffffffffff811115614608576146076143a4565b5b602083019150836001820283011115614624576146236143a9565b5b9250929050565b6000806000806040858703121561464557614644613c82565b5b600085013567ffffffffffffffff81111561466357614662613c87565b5b61466f878288016145d5565b9450945050602085013567ffffffffffffffff81111561469257614691613c87565b5b61469e878288016145d5565b925092505092959194509250565b6146b581613d11565b81146146c057600080fd5b50565b6000813590506146d2816146ac565b92915050565b600080604083850312156146ef576146ee613c82565b5b60006146fd85828601613ed8565b925050602061470e858286016146c3565b9150509250929050565b60008083601f84011261472e5761472d613f5a565b5b8235905067ffffffffffffffff81111561474b5761474a6143a4565b5b602083019150836040820283011115614767576147666143a9565b5b9250929050565b6000806020838503121561478557614784613c82565b5b600083013567ffffffffffffffff8111156147a3576147a2613c87565b5b6147af85828601614718565b92509250509250929050565b600080604083850312156147d2576147d1613c82565b5b60006147e0858286016141a8565b92505060206147f18582860161438f565b9150509250929050565b600067ffffffffffffffff82111561481657614815613f64565b5b61481f82613d96565b9050602081019050919050565b600061483f61483a846147fb565b613fc4565b90508281526020810184848401111561485b5761485a613f5f565b5b614866848285614010565b509392505050565b600082601f83011261488357614882613f5a565b5b813561489384826020860161482c565b91505092915050565b600080600080608085870312156148b6576148b5613c82565b5b60006148c487828801613ed8565b94505060206148d587828801613ed8565b93505060406148e687828801613e23565b925050606085013567ffffffffffffffff81111561490757614906613c87565b5b6149138782880161486e565b91505092959194509250565b600061492a8261424a565b9050919050565b61493a8161491f565b82525050565b60006020820190506149556000830184614931565b92915050565b60006149668261424a565b9050919050565b6149768161495b565b82525050565b6000602082019050614991600083018461496d565b92915050565b60008083601f8401126149ad576149ac613f5a565b5b8235905067ffffffffffffffff8111156149ca576149c96143a4565b5b6020830191508360208202830111156149e6576149e56143a9565b5b9250929050565b60008083601f840112614a0357614a02613f5a565b5b8235905067ffffffffffffffff811115614a2057614a1f6143a4565b5b602083019150836020820283011115614a3c57614a3b6143a9565b5b9250929050565b60008060008060408587031215614a5d57614a5c613c82565b5b600085013567ffffffffffffffff811115614a7b57614a7a613c87565b5b614a8787828801614997565b9450945050602085013567ffffffffffffffff811115614aaa57614aa9613c87565b5b614ab6878288016149ed565b925092505092959194509250565b60008060408385031215614adb57614ada613c82565b5b6000614ae985828601613ed8565b9250506020614afa85828601613ed8565b9150509250929050565b7f4e487b7100000000000000000000000000000000000000000000000000000000600052602260045260246000fd5b60006002820490506001821680614b4b57607f821691505b602082108103614b5e57614b5d614b04565b5b50919050565b7f4552433732313a20617070726f76616c20746f2063757272656e74206f776e6560008201527f7200000000000000000000000000000000000000000000000000000000000000602082015250565b6000614bc0602183613d52565b9150614bcb82614b64565b604082019050919050565b60006020820190508181036000830152614bef81614bb3565b9050919050565b7f4552433732313a20617070726f76652063616c6c6572206973206e6f7420746f60008201527f6b656e206f776e6572206f7220617070726f76656420666f7220616c6c000000602082015250565b6000614c52603d83613d52565b9150614c5d82614bf6565b604082019050919050565b60006020820190508181036000830152614c8181614c45565b9050919050565b7f496e697469616c697a61626c653a20636f6e747261637420697320616c72656160008201527f647920696e697469616c697a6564000000000000000000000000000000000000602082015250565b6000614ce4602e83613d52565b9150614cef82614c88565b604082019050919050565b60006020820190508181036000830152614d1381614cd7565b9050919050565b6000819050919050565b600060ff82169050919050565b6000614d4c614d47614d4284614d1a565b61421e565b614d24565b9050919050565b614d5c81614d31565b82525050565b6000602082019050614d776000830184614d53565b92915050565b7f4552433732313a2063616c6c6572206973206e6f7420746f6b656e206f776e6560008201527f72206f7220617070726f76656400000000000000000000000000000000000000602082015250565b6000614dd9602d83613d52565b9150614de482614d7d565b604082019050919050565b60006020820190508181036000830152614e0881614dcc565b9050919050565b7f4e487b7100000000000000000000000000000000000000000000000000000000600052603260045260246000fd5b7f4e487b7100000000000000000000000000000000000000000000000000000000600052601160045260246000fd5b6000614e7882613e02565b91507fffffffffffffffffffffffffffffffffffffffffffffffffffffffffffffffff8203614eaa57614ea9614e3e565b5b600182019050919050565b7f216d61696c626f78000000000000000000000000000000000000000000000000600082015250565b6000614eeb600883613d52565b9150614ef682614eb5565b602082019050919050565b60006020820190508181036000830152614f1a81614ede565b9050919050565b7f4552433732313a20696e76616c696420746f6b656e2049440000000000000000600082015250565b6000614f57601883613d52565b9150614f6282614f21565b602082019050919050565b60006020820190508181036000830152614f8681614f4a565b9050919050565b7f4552433732313a2061646472657373207a65726f206973206e6f74206120766160008201527f6c6964206f776e65720000000000000000000000000000000000000000000000602082015250565b6000614fe9602983613d52565b9150614ff482614f8d565b604082019050919050565b6000602082019050818103600083015261501881614fdc565b9050919050565b600061502a82613e02565b915061503583613e02565b9250827fffffffffffffffffffffffffffffffffffffffffffffffffffffffffffffffff0382111561506a57615069614e3e565b5b828201905092915050565b600081905092915050565b600061508b82613d47565b6150958185615075565b93506150a5818560208601613d63565b80840191505092915050565b60006150bd8285615080565b91506150c98284615080565b91508190509392505050565b7f216c656e67746800000000000000000000000000000000000000000000000000600082015250565b600061510b600783613d52565b9150615116826150d5565b602082019050919050565b6000602082019050818103600083015261513a816150fe565b9050919050565b61514a81614181565b82525050565b60006040820190506151656000830185615141565b6151726020830184614478565b9392505050565b60008151905061518881613e0c565b92915050565b6000602082840312156151a4576151a3613c82565b5b60006151b284828501615179565b91505092915050565b7f4f776e61626c653a206e6577206f776e657220697320746865207a65726f206160008201527f6464726573730000000000000000000000000000000000000000000000000000602082015250565b6000615217602683613d52565b9150615222826151bb565b604082019050919050565b600060208201905081810360008301526152468161520a565b9050919050565b7f4f776e61626c653a2063616c6c6572206973206e6f7420746865206f776e6572600082015250565b6000615283602083613d52565b915061528e8261524d565b602082019050919050565b600060208201905081810360008301526152b281615276565b9050919050565b7f21636f6e74726163740000000000000000000000000000000000000000000000600082015250565b60006152ef600983613d52565b91506152fa826152b9565b602082019050919050565b6000602082019050818103600083015261531e816152e2565b9050919050565b7f496e697469616c697a61626c653a20636f6e7472616374206973206e6f74206960008201527f6e697469616c697a696e67000000000000000000000000000000000000000000602082015250565b6000615381602b83613d52565b915061538c82615325565b604082019050919050565b600060208201905081810360008301526153b081615374565b9050919050565b7f4552433732313a207472616e736665722066726f6d20696e636f72726563742060008201527f6f776e6572000000000000000000000000000000000000000000000000000000602082015250565b6000615413602583613d52565b915061541e826153b7565b604082019050919050565b6000602082019050818103600083015261544281615406565b9050919050565b7f4552433732313a207472616e7366657220746f20746865207a65726f2061646460008201527f7265737300000000000000000000000000000000000000000000000000000000602082015250565b60006154a5602483613d52565b91506154b082615449565b604082019050919050565b600060208201905081810360008301526154d481615498565b9050919050565b7f216f776e65720000000000000000000000000000000000000000000000000000600082015250565b6000615511600683613d52565b915061551c826154db565b602082019050919050565b6000602082019050818103600083015261554081615504565b9050919050565b6000819050919050565b61556261555d826141ea565b615547565b82525050565b6000819050919050565b61558361557e82613e02565b615568565b82525050565b600081519050919050565b600081905092915050565b60006155aa82615589565b6155b48185615594565b93506155c4818560208601613d63565b80840191505092915050565b60006155dc8286615551565b6020820191506155ec8285615572565b6020820191506155fc828461559f565b9150819050949350505050565b7f68747470733a2f2f000000000000000000000000000000000000000000000000600082015250565b600061563f600883615075565b915061564a82615609565b600882019050919050565b7f2e697066732e7733732e6c696e6b2f6176617461722e706e6700000000000000600082015250565b600061568b601983615075565b915061569682615655565b601982019050919050565b60006156ac82615632565b91506156b88284615080565b91506156c38261567e565b915081905092915050565b7f7b226e616d65223a202261636323000000000000000000000000000000000000600082015250565b6000615704600e83615075565b915061570f826156ce565b600e82019050919050565b7f222c226465736372697074696f6e223a2022417765736f6d652063726f73732060008201527f636861696e204e465473222c0000000000000000000000000000000000000000602082015250565b6000615776602c83615075565b91506157818261571a565b602c82019050919050565b7f22696d616765223a220000000000000000000000000000000000000000000000600082015250565b60006157c2600983615075565b91506157cd8261578c565b600982019050919050565b7f222c2261747472696275746573223a0000000000000000000000000000000000600082015250565b600061580e600f83615075565b9150615819826157d8565b600f82019050919050565b7f7d00000000000000000000000000000000000000000000000000000000000000600082015250565b600061585a600183615075565b915061586582615824565b600182019050919050565b600061587b826156f7565b91506158878286615080565b915061589282615769565b915061589d826157b5565b91506158a98285615080565b91506158b482615801565b91506158c08284615080565b91506158cb8261584d565b9150819050949350505050565b7f45524337323155524953746f726167653a2055524920736574206f66206e6f6e60008201527f6578697374656e7420746f6b656e000000000000000000000000000000000000602082015250565b6000615934602e83613d52565b915061593f826158d8565b604082019050919050565b6000602082019050818103600083015261596381615927565b9050919050565b7f4552433732313a20617070726f766520746f2063616c6c657200000000000000600082015250565b60006159a0601983613d52565b91506159ab8261596a565b602082019050919050565b600060208201905081810360008301526159cf81615993565b9050919050565b7f4552433732313a207472616e7366657220746f206e6f6e20455243373231526560008201527f63656976657220696d706c656d656e7465720000000000000000000000000000602082015250565b6000615a32603283613d52565b9150615a3d826159d6565b604082019050919050565b60006020820190508181036000830152615a6181615a25565b9050919050565b7f456e756d657261626c654d61703a206e6f6e6578697374656e74206b65790000600082015250565b6000615a9e601e83613d52565b9150615aa982615a68565b602082019050919050565b60006020820190508181036000830152615acd81615a91565b9050919050565b600080fd5b600080fd5b60008085851115615af257615af1615ad4565b5b83861115615b0357615b02615ad9565b5b6001850283019150848603905094509492505050565b600082905092915050565b600082821b905092915050565b6000615b3d8383615b19565b82615b4881356141ea565b92506020821015615b8857615b837fffffffffffffffffffffffffffffffffffffffffffffffffffffffffffffffff83602003600802615b24565b831692505b505092915050565b6000608082019050615ba560008301876141f4565b615bb26020830186615141565b615bbf6040830185614478565b615bcc6060830184613e97565b95945050505050565b7f4e487b7100000000000000000000000000000000000000000000000000000000600052601260045260246000fd5b600082825260208201905092915050565b6000615c2082615589565b615c2a8185615c04565b9350615c3a818560208601613d63565b615c4381613d96565b840191505092915050565b6000608082019050615c636000830187613e97565b615c706020830186613e97565b615c7d6040830185614478565b8181036060830152615c8f8184615c15565b905095945050505050565b600081519050615ca981613cb8565b92915050565b600060208284031215615cc557615cc4613c82565b5b6000615cd384828501615c9a565b91505092915050565b6000606082019050615cf16000830186615141565b615cfe60208301856141f4565b8181036040830152615d108184615c15565b9050949350505050565b600081519050615d2981614378565b92915050565b600060208284031215615d4557615d44613c82565b5b6000615d5384828501615d1a565b91505092915050565b7f4552433732313a206d696e7420746f20746865207a65726f2061646472657373600082015250565b6000615d92602083613d52565b9150615d9d82615d5c565b602082019050919050565b60006020820190508181036000830152615dc181615d85565b9050919050565b7f4552433732313a20746f6b656e20616c7265616479206d696e74656400000000600082015250565b6000615dfe601c83613d52565b9150615e0982615dc8565b602082019050919050565b60006020820190508181036000830152615e2d81615df1565b905091905056fe4e6f20726f7574657220656e726f6c6c656420666f7220646f6d61696e2e2044696420796f7520737065636966792074686520726967687420646f6d61696e2049443fa26469706673582212202ed6a0c3d900f5f08d149873d58248bade4758f1d6b694bad61cb226c439f08b64736f6c634300080d0033",
  "linkReferences": {},
  "deployedLinkReferences": {}
}